{"contracts/AccessControl.sol":{"JewelryAccessControl":{"abi":[{"inputs":[],"stateMutability":"nonpayable","type":"constructor"},{"inputs":[],"name":"AccessControlBadConfirmation","type":"error"},{"inputs":[{"internalType":"address","name":"account","type":"address"},{"internalType":"bytes32","name":"neededRole","type":"bytes32"}],"name":"AccessControlUnauthorizedAccount","type":"error"},{"anonymous":false,"inputs":[{"indexed":true,"internalType":"bytes32","name":"role","type":"bytes32"},{"indexed":true,"internalType":"bytes32","name":"previousAdminRole","type":"bytes32"},{"indexed":true,"internalType":"bytes32","name":"newAdminRole","type":"bytes32"}],"name":"RoleAdminChanged","type":"event"},{"anonymous":false,"inputs":[{"indexed":true,"internalType":"bytes32","name":"role","type":"bytes32"},{"indexed":true,"internalType":"address","name":"account","type":"address"},{"indexed":true,"internalType":"address","name":"sender","type":"address"}],"name":"RoleGranted","type":"event"},{"anonymous":false,"inputs":[{"indexed":true,"internalType":"bytes32","name":"role","type":"bytes32"},{"indexed":true,"internalType":"address","name":"account","type":"address"},{"indexed":true,"internalType":"address","name":"sender","type":"address"}],"name":"RoleRevoked","type":"event"},{"inputs":[],"name":"CUTTER_ROLE","outputs":[{"internalType":"bytes32","name":"","type":"bytes32"}],"stateMutability":"view","type":"function"},{"inputs":[],"name":"DEFAULT_ADMIN_ROLE","outputs":[{"internalType":"bytes32","name":"","type":"bytes32"}],"stateMutability":"view","type":"function"},{"inputs":[],"name":"JEWELER_ROLE","outputs":[{"internalType":"bytes32","name":"","type":"bytes32"}],"stateMutability":"view","type":"function"},{"inputs":[],"name":"LAB_ROLE","outputs":[{"internalType":"bytes32","name":"","type":"bytes32"}],"stateMutability":"view","type":"function"},{"inputs":[],"name":"MINER_ROLE","outputs":[{"internalType":"bytes32","name":"","type":"bytes32"}],"stateMutability":"view","type":"function"},{"inputs":[{"internalType":"bytes32","name":"role","type":"bytes32"}],"name":"getRoleAdmin","outputs":[{"internalType":"bytes32","name":"","type":"bytes32"}],"stateMutability":"view","type":"function"},{"inputs":[{"internalType":"bytes32","name":"role","type":"bytes32"},{"internalType":"address","name":"account","type":"address"}],"name":"grantRole","outputs":[],"stateMutability":"nonpayable","type":"function"},{"inputs":[{"internalType":"bytes32","name":"role","type":"bytes32"},{"internalType":"address","name":"account","type":"address"}],"name":"hasRole","outputs":[{"internalType":"bool","name":"","type":"bool"}],"stateMutability":"view","type":"function"},{"inputs":[{"internalType":"bytes32","name":"role","type":"bytes32"},{"internalType":"address","name":"callerConfirmation","type":"address"}],"name":"renounceRole","outputs":[],"stateMutability":"nonpayable","type":"function"},{"inputs":[{"internalType":"bytes32","name":"role","type":"bytes32"},{"internalType":"address","name":"account","type":"address"}],"name":"revokeRole","outputs":[],"stateMutability":"nonpayable","type":"function"},{"inputs":[{"internalType":"bytes4","name":"interfaceId","type":"bytes4"}],"name":"supportsInterface","outputs":[{"internalType":"bool","name":"","type":"bool"}],"stateMutability":"view","type":"function"}],"evm":{"bytecode":{"linkReferences":{},"object":"608060405234801561001057600080fd5b5061001c6000336100ce565b506100477fa952726ef2588ad078edf35b066f7c7406e207cb0003bbaba8cb53eba9553e72336100ce565b506100727f4056c932e3f2d90f160881892422c8f1255baba3c666a8b8d7904fe3a7c84872336100ce565b5061009d7f373fdac787be5578b9a3d4a9ca3e3ae1e632ab5ee4750e92f65223238a15b2ef336100ce565b506100c87f9b272aa0221ce21621c8f26c35e7024628aa89fa67885b0067828bc75b5cc1ee336100ce565b5061017a565b6000828152602081815260408083206001600160a01b038516845290915281205460ff16610170576000838152602081815260408083206001600160a01b03861684529091529020805460ff191660011790556101283390565b6001600160a01b0316826001600160a01b0316847f2f8788117e7eff1d82e926ec794901d17c78024a50270940304540a733656f0d60405160405180910390a4506001610174565b5060005b92915050565b6104e8806101896000396000f3fe608060405234801561001057600080fd5b50600436106100a95760003560e01c806372b651661161007157806372b651661461015657806391d148541461017d5780639c467b3114610190578063a217fddf146101b7578063bd3070c6146101bf578063d547741f146101e657600080fd5b806301ffc9a7146100ae578063248a9ca3146100d65780632f2ff15d1461010757806336568abe1461011c5780636394f6e61461012f575b600080fd5b6100c16100bc36600461042c565b6101f9565b60405190151581526020015b60405180910390f35b6100f96100e436600461045d565b60009081526020819052604090206001015490565b6040519081526020016100cd565b61011a610115366004610476565b610230565b005b61011a61012a366004610476565b61025b565b6100f97fa952726ef2588ad078edf35b066f7c7406e207cb0003bbaba8cb53eba9553e7281565b6100f97f4056c932e3f2d90f160881892422c8f1255baba3c666a8b8d7904fe3a7c8487281565b6100c161018b366004610476565b610293565b6100f97f9b272aa0221ce21621c8f26c35e7024628aa89fa67885b0067828bc75b5cc1ee81565b6100f9600081565b6100f97f373fdac787be5578b9a3d4a9ca3e3ae1e632ab5ee4750e92f65223238a15b2ef81565b61011a6101f4366004610476565b6102bc565b60006001600160e01b03198216637965db0b60e01b148061022a57506301ffc9a760e01b6001600160e01b03198316145b92915050565b60008281526020819052604090206001015461024b816102e1565b61025583836102ee565b50505050565b6001600160a01b03811633146102845760405163334bd91960e11b815260040160405180910390fd5b61028e8282610380565b505050565b6000918252602082815260408084206001600160a01b0393909316845291905290205460ff1690565b6000828152602081905260409020600101546102d7816102e1565b6102558383610380565b6102eb81336103eb565b50565b60006102fa8383610293565b610378576000838152602081815260408083206001600160a01b03861684529091529020805460ff191660011790556103303390565b6001600160a01b0316826001600160a01b0316847f2f8788117e7eff1d82e926ec794901d17c78024a50270940304540a733656f0d60405160405180910390a450600161022a565b50600061022a565b600061038c8383610293565b15610378576000838152602081815260408083206001600160a01b0386168085529252808320805460ff1916905551339286917ff6391f5c32d9c69d2a47ea670b442974b53935d1edc7fd64eb21e047a839171b9190a450600161022a565b6103f58282610293565b6104285760405163e2517d3f60e01b81526001600160a01b03821660048201526024810183905260440160405180910390fd5b5050565b60006020828403121561043e57600080fd5b81356001600160e01b03198116811461045657600080fd5b9392505050565b60006020828403121561046f57600080fd5b5035919050565b6000806040838503121561048957600080fd5b8235915060208301356001600160a01b03811681146104a757600080fd5b80915050925092905056fea264697066735822122012f765ad60dad6f01f919f6a7d8d413c8c06464764ba004564e3ca13ce1da06d64736f6c63430008140033","opcodes":"PUSH1 0x80 PUSH1 0x40 MSTORE CALLVALUE DUP1 ISZERO PUSH2 0x10 JUMPI PUSH1 0x0 DUP1 REVERT JUMPDEST POP PUSH2 0x1C PUSH1 0x0 CALLER PUSH2 0xCE JUMP JUMPDEST POP PUSH2 0x47 PUSH32 0xA952726EF2588AD078EDF35B066F7C7406E207CB0003BBABA8CB53EBA9553E72 CALLER PUSH2 0xCE JUMP JUMPDEST POP PUSH2 0x72 PUSH32 0x4056C932E3F2D90F160881892422C8F1255BABA3C666A8B8D7904FE3A7C84872 CALLER PUSH2 0xCE JUMP JUMPDEST POP PUSH2 0x9D PUSH32 0x373FDAC787BE5578B9A3D4A9CA3E3AE1E632AB5EE4750E92F65223238A15B2EF CALLER PUSH2 0xCE JUMP JUMPDEST POP PUSH2 0xC8 PUSH32 0x9B272AA0221CE21621C8F26C35E7024628AA89FA67885B0067828BC75B5CC1EE CALLER PUSH2 0xCE JUMP JUMPDEST POP PUSH2 0x17A JUMP JUMPDEST PUSH1 0x0 DUP3 DUP2 MSTORE PUSH1 0x20 DUP2 DUP2 MSTORE PUSH1 0x40 DUP1 DUP4 KECCAK256 PUSH1 0x1 PUSH1 0x1 PUSH1 0xA0 SHL SUB DUP6 AND DUP5 MSTORE SWAP1 SWAP2 MSTORE DUP2 KECCAK256 SLOAD PUSH1 0xFF AND PUSH2 0x170 JUMPI PUSH1 0x0 DUP4 DUP2 MSTORE PUSH1 0x20 DUP2 DUP2 MSTORE PUSH1 0x40 DUP1 DUP4 KECCAK256 PUSH1 0x1 PUSH1 0x1 PUSH1 0xA0 SHL SUB DUP7 AND DUP5 MSTORE SWAP1 SWAP2 MSTORE SWAP1 KECCAK256 DUP1 SLOAD PUSH1 0xFF NOT AND PUSH1 0x1 OR SWAP1 SSTORE PUSH2 0x128 CALLER SWAP1 JUMP JUMPDEST PUSH1 0x1 PUSH1 0x1 PUSH1 0xA0 SHL SUB AND DUP3 PUSH1 0x1 PUSH1 0x1 PUSH1 0xA0 SHL SUB AND DUP5 PUSH32 0x2F8788117E7EFF1D82E926EC794901D17C78024A50270940304540A733656F0D PUSH1 0x40 MLOAD PUSH1 0x40 MLOAD DUP1 SWAP2 SUB SWAP1 LOG4 POP PUSH1 0x1 PUSH2 0x174 JUMP JUMPDEST POP PUSH1 0x0 JUMPDEST SWAP3 SWAP2 POP POP JUMP JUMPDEST PUSH2 0x4E8 DUP1 PUSH2 0x189 PUSH1 0x0 CODECOPY PUSH1 0x0 RETURN INVALID PUSH1 0x80 PUSH1 0x40 MSTORE CALLVALUE DUP1 ISZERO PUSH2 0x10 JUMPI PUSH1 0x0 DUP1 REVERT JUMPDEST POP PUSH1 0x4 CALLDATASIZE LT PUSH2 0xA9 JUMPI PUSH1 0x0 CALLDATALOAD PUSH1 0xE0 SHR DUP1 PUSH4 0x72B65166 GT PUSH2 0x71 JUMPI DUP1 PUSH4 0x72B65166 EQ PUSH2 0x156 JUMPI DUP1 PUSH4 0x91D14854 EQ PUSH2 0x17D JUMPI DUP1 PUSH4 0x9C467B31 EQ PUSH2 0x190 JUMPI DUP1 PUSH4 0xA217FDDF EQ PUSH2 0x1B7 JUMPI DUP1 PUSH4 0xBD3070C6 EQ PUSH2 0x1BF JUMPI DUP1 PUSH4 0xD547741F EQ PUSH2 0x1E6 JUMPI PUSH1 0x0 DUP1 REVERT JUMPDEST DUP1 PUSH4 0x1FFC9A7 EQ PUSH2 0xAE JUMPI DUP1 PUSH4 0x248A9CA3 EQ PUSH2 0xD6 JUMPI DUP1 PUSH4 0x2F2FF15D EQ PUSH2 0x107 JUMPI DUP1 PUSH4 0x36568ABE EQ PUSH2 0x11C JUMPI DUP1 PUSH4 0x6394F6E6 EQ PUSH2 0x12F JUMPI JUMPDEST PUSH1 0x0 DUP1 REVERT JUMPDEST PUSH2 0xC1 PUSH2 0xBC CALLDATASIZE PUSH1 0x4 PUSH2 0x42C JUMP JUMPDEST PUSH2 0x1F9 JUMP JUMPDEST PUSH1 0x40 MLOAD SWAP1 ISZERO ISZERO DUP2 MSTORE PUSH1 0x20 ADD JUMPDEST PUSH1 0x40 MLOAD DUP1 SWAP2 SUB SWAP1 RETURN JUMPDEST PUSH2 0xF9 PUSH2 0xE4 CALLDATASIZE PUSH1 0x4 PUSH2 0x45D JUMP JUMPDEST PUSH1 0x0 SWAP1 DUP2 MSTORE PUSH1 0x20 DUP2 SWAP1 MSTORE PUSH1 0x40 SWAP1 KECCAK256 PUSH1 0x1 ADD SLOAD SWAP1 JUMP JUMPDEST PUSH1 0x40 MLOAD SWAP1 DUP2 MSTORE PUSH1 0x20 ADD PUSH2 0xCD JUMP JUMPDEST PUSH2 0x11A PUSH2 0x115 CALLDATASIZE PUSH1 0x4 PUSH2 0x476 JUMP JUMPDEST PUSH2 0x230 JUMP JUMPDEST STOP JUMPDEST PUSH2 0x11A PUSH2 0x12A CALLDATASIZE PUSH1 0x4 PUSH2 0x476 JUMP JUMPDEST PUSH2 0x25B JUMP JUMPDEST PUSH2 0xF9 PUSH32 0xA952726EF2588AD078EDF35B066F7C7406E207CB0003BBABA8CB53EBA9553E72 DUP2 JUMP JUMPDEST PUSH2 0xF9 PUSH32 0x4056C932E3F2D90F160881892422C8F1255BABA3C666A8B8D7904FE3A7C84872 DUP2 JUMP JUMPDEST PUSH2 0xC1 PUSH2 0x18B CALLDATASIZE PUSH1 0x4 PUSH2 0x476 JUMP JUMPDEST PUSH2 0x293 JUMP JUMPDEST PUSH2 0xF9 PUSH32 0x9B272AA0221CE21621C8F26C35E7024628AA89FA67885B0067828BC75B5CC1EE DUP2 JUMP JUMPDEST PUSH2 0xF9 PUSH1 0x0 DUP2 JUMP JUMPDEST PUSH2 0xF9 PUSH32 0x373FDAC787BE5578B9A3D4A9CA3E3AE1E632AB5EE4750E92F65223238A15B2EF DUP2 JUMP JUMPDEST PUSH2 0x11A PUSH2 0x1F4 CALLDATASIZE PUSH1 0x4 PUSH2 0x476 JUMP JUMPDEST PUSH2 0x2BC JUMP JUMPDEST PUSH1 0x0 PUSH1 0x1 PUSH1 0x1 PUSH1 0xE0 SHL SUB NOT DUP3 AND PUSH4 0x7965DB0B PUSH1 0xE0 SHL EQ DUP1 PUSH2 0x22A JUMPI POP PUSH4 0x1FFC9A7 PUSH1 0xE0 SHL PUSH1 0x1 PUSH1 0x1 PUSH1 0xE0 SHL SUB NOT DUP4 AND EQ JUMPDEST SWAP3 SWAP2 POP POP JUMP JUMPDEST PUSH1 0x0 DUP3 DUP2 MSTORE PUSH1 0x20 DUP2 SWAP1 MSTORE PUSH1 0x40 SWAP1 KECCAK256 PUSH1 0x1 ADD SLOAD PUSH2 0x24B DUP2 PUSH2 0x2E1 JUMP JUMPDEST PUSH2 0x255 DUP4 DUP4 PUSH2 0x2EE JUMP JUMPDEST POP POP POP POP JUMP JUMPDEST PUSH1 0x1 PUSH1 0x1 PUSH1 0xA0 SHL SUB DUP2 AND CALLER EQ PUSH2 0x284 JUMPI PUSH1 0x40 MLOAD PUSH4 0x334BD919 PUSH1 0xE1 SHL DUP2 MSTORE PUSH1 0x4 ADD PUSH1 0x40 MLOAD DUP1 SWAP2 SUB SWAP1 REVERT JUMPDEST PUSH2 0x28E DUP3 DUP3 PUSH2 0x380 JUMP JUMPDEST POP POP POP JUMP JUMPDEST PUSH1 0x0 SWAP2 DUP3 MSTORE PUSH1 0x20 DUP3 DUP2 MSTORE PUSH1 0x40 DUP1 DUP5 KECCAK256 PUSH1 0x1 PUSH1 0x1 PUSH1 0xA0 SHL SUB SWAP4 SWAP1 SWAP4 AND DUP5 MSTORE SWAP2 SWAP1 MSTORE SWAP1 KECCAK256 SLOAD PUSH1 0xFF AND SWAP1 JUMP JUMPDEST PUSH1 0x0 DUP3 DUP2 MSTORE PUSH1 0x20 DUP2 SWAP1 MSTORE PUSH1 0x40 SWAP1 KECCAK256 PUSH1 0x1 ADD SLOAD PUSH2 0x2D7 DUP2 PUSH2 0x2E1 JUMP JUMPDEST PUSH2 0x255 DUP4 DUP4 PUSH2 0x380 JUMP JUMPDEST PUSH2 0x2EB DUP2 CALLER PUSH2 0x3EB JUMP JUMPDEST POP JUMP JUMPDEST PUSH1 0x0 PUSH2 0x2FA DUP4 DUP4 PUSH2 0x293 JUMP JUMPDEST PUSH2 0x378 JUMPI PUSH1 0x0 DUP4 DUP2 MSTORE PUSH1 0x20 DUP2 DUP2 MSTORE PUSH1 0x40 DUP1 DUP4 KECCAK256 PUSH1 0x1 PUSH1 0x1 PUSH1 0xA0 SHL SUB DUP7 AND DUP5 MSTORE SWAP1 SWAP2 MSTORE SWAP1 KECCAK256 DUP1 SLOAD PUSH1 0xFF NOT AND PUSH1 0x1 OR SWAP1 SSTORE PUSH2 0x330 CALLER SWAP1 JUMP JUMPDEST PUSH1 0x1 PUSH1 0x1 PUSH1 0xA0 SHL SUB AND DUP3 PUSH1 0x1 PUSH1 0x1 PUSH1 0xA0 SHL SUB AND DUP5 PUSH32 0x2F8788117E7EFF1D82E926EC794901D17C78024A50270940304540A733656F0D PUSH1 0x40 MLOAD PUSH1 0x40 MLOAD DUP1 SWAP2 SUB SWAP1 LOG4 POP PUSH1 0x1 PUSH2 0x22A JUMP JUMPDEST POP PUSH1 0x0 PUSH2 0x22A JUMP JUMPDEST PUSH1 0x0 PUSH2 0x38C DUP4 DUP4 PUSH2 0x293 JUMP JUMPDEST ISZERO PUSH2 0x378 JUMPI PUSH1 0x0 DUP4 DUP2 MSTORE PUSH1 0x20 DUP2 DUP2 MSTORE PUSH1 0x40 DUP1 DUP4 KECCAK256 PUSH1 0x1 PUSH1 0x1 PUSH1 0xA0 SHL SUB DUP7 AND DUP1 DUP6 MSTORE SWAP3 MSTORE DUP1 DUP4 KECCAK256 DUP1 SLOAD PUSH1 0xFF NOT AND SWAP1 SSTORE MLOAD CALLER SWAP3 DUP7 SWAP2 PUSH32 0xF6391F5C32D9C69D2A47EA670B442974B53935D1EDC7FD64EB21E047A839171B SWAP2 SWAP1 LOG4 POP PUSH1 0x1 PUSH2 0x22A JUMP JUMPDEST PUSH2 0x3F5 DUP3 DUP3 PUSH2 0x293 JUMP JUMPDEST PUSH2 0x428 JUMPI PUSH1 0x40 MLOAD PUSH4 0xE2517D3F PUSH1 0xE0 SHL DUP2 MSTORE PUSH1 0x1 PUSH1 0x1 PUSH1 0xA0 SHL SUB DUP3 AND PUSH1 0x4 DUP3 ADD MSTORE PUSH1 0x24 DUP2 ADD DUP4 SWAP1 MSTORE PUSH1 0x44 ADD PUSH1 0x40 MLOAD DUP1 SWAP2 SUB SWAP1 REVERT JUMPDEST POP POP JUMP JUMPDEST PUSH1 0x0 PUSH1 0x20 DUP3 DUP5 SUB SLT ISZERO PUSH2 0x43E JUMPI PUSH1 0x0 DUP1 REVERT JUMPDEST DUP2 CALLDATALOAD PUSH1 0x1 PUSH1 0x1 PUSH1 0xE0 SHL SUB NOT DUP2 AND DUP2 EQ PUSH2 0x456 JUMPI PUSH1 0x0 DUP1 REVERT JUMPDEST SWAP4 SWAP3 POP POP POP JUMP JUMPDEST PUSH1 0x0 PUSH1 0x20 DUP3 DUP5 SUB SLT ISZERO PUSH2 0x46F JUMPI PUSH1 0x0 DUP1 REVERT JUMPDEST POP CALLDATALOAD SWAP2 SWAP1 POP JUMP JUMPDEST PUSH1 0x0 DUP1 PUSH1 0x40 DUP4 DUP6 SUB SLT ISZERO PUSH2 0x489 JUMPI PUSH1 0x0 DUP1 REVERT JUMPDEST DUP3 CALLDATALOAD SWAP2 POP PUSH1 0x20 DUP4 ADD CALLDATALOAD PUSH1 0x1 PUSH1 0x1 PUSH1 0xA0 SHL SUB DUP2 AND DUP2 EQ PUSH2 0x4A7 JUMPI PUSH1 0x0 DUP1 REVERT JUMPDEST DUP1 SWAP2 POP POP SWAP3 POP SWAP3 SWAP1 POP JUMP INVALID LOG2 PUSH5 0x6970667358 0x22 SLT KECCAK256 SLT 0xF7 PUSH6 0xAD60DAD6F01F SWAP2 SWAP16 PUSH11 0x7D8D413C8C06464764BA00 GASLIMIT PUSH5 0xE3CA13CE1D LOG0 PUSH14 0x64736F6C63430008140033000000 "},"methodIdentifiers":{"CUTTER_ROLE()":"72b65166","DEFAULT_ADMIN_ROLE()":"a217fddf","JEWELER_ROLE()":"9c467b31","LAB_ROLE()":"bd3070c6","MINER_ROLE()":"6394f6e6","getRoleAdmin(bytes32)":"248a9ca3","grantRole(bytes32,address)":"2f2ff15d","hasRole(bytes32,address)":"91d14854","renounceRole(bytes32,address)":"36568abe","revokeRole(bytes32,address)":"d547741f","supportsInterface(bytes4)":"01ffc9a7"}}}}}