{
  "_format": "hh-sol-artifact-1",
  "contractName": "CertificateManager",
  "sourceName": "contracts/CertificateManager.sol",
  "abi": [
    {
      "anonymous": false,
      "inputs": [
        {
          "indexed": false,
          "internalType": "string",
          "name": "id",
          "type": "string"
        },
        {
          "indexed": false,
          "internalType": "string",
          "name": "batchCode",
          "type": "string"
        },
        {
          "indexed": false,
          "internalType": "string",
          "name": "state",
          "type": "string"
        },
        {
          "indexed": false,
          "internalType": "string",
          "name": "price",
          "type": "string"
        },
        {
          "indexed": false,
          "internalType": "string",
          "name": "description",
          "type": "string"
        },
        {
          "indexed": false,
          "internalType": "uint256",
          "name": "productionDate",
          "type": "uint256"
        },
        {
          "indexed": false,
          "internalType": "string",
          "name": "signature",
          "type": "string"
        }
      ],
      "name": "CertificateCreated",
      "type": "event"
    },
    {
      "inputs": [
        {
          "internalType": "string",
          "name": "id",
          "type": "string"
        },
        {
          "internalType": "string",
          "name": "batchCode",
          "type": "string"
        },
        {
          "internalType": "string",
          "name": "state",
          "type": "string"
        },
        {
          "internalType": "string",
          "name": "price",
          "type": "string"
        },
        {
          "internalType": "string",
          "name": "description",
          "type": "string"
        },
        {
          "internalType": "uint256",
          "name": "productionDate",
          "type": "uint256"
        },
        {
          "internalType": "string",
          "name": "signature",
          "type": "string"
        }
      ],
      "name": "createCertificate",
      "outputs": [],
      "stateMutability": "nonpayable",
      "type": "function"
    },
    {
      "inputs": [
        {
          "internalType": "string",
          "name": "id",
          "type": "string"
        }
      ],
      "name": "getCertificate",
      "outputs": [
        {
          "components": [
            {
              "internalType": "string",
              "name": "id",
              "type": "string"
            },
            {
              "internalType": "string",
              "name": "batchCode",
              "type": "string"
            },
            {
              "internalType": "string",
              "name": "state",
              "type": "string"
            },
            {
              "internalType": "string",
              "name": "price",
              "type": "string"
            },
            {
              "internalType": "string",
              "name": "description",
              "type": "string"
            },
            {
              "internalType": "uint256",
              "name": "productionDate",
              "type": "uint256"
            },
            {
              "internalType": "string",
              "name": "signature",
              "type": "string"
            }
          ],
          "internalType": "struct CertificateManager.Certificate",
          "name": "",
          "type": "tuple"
        }
      ],
      "stateMutability": "view",
      "type": "function"
    }
  ],
  "bytecode": "0x6080604052348015600f57600080fd5b506110418061001f6000396000f3fe608060405234801561001057600080fd5b50600436106100365760003560e01c8063ec7d8dce1461003b578063ed0f2e7514610057575b600080fd5b6100556004803603810190610050919061080e565b610087565b005b610071600480360381019061006c9190610958565b610224565b60405161007e9190610aee565b60405180910390f35b600080886040516100989190610b4c565b908152602001604051809103902060000180546100b490610b92565b9050146100f6576040517f08c379a00000000000000000000000000000000000000000000000000000000081526004016100ed90610c20565b60405180910390fd5b6040518060e00160405280888152602001878152602001868152602001858152602001848152602001838152602001828152506000886040516101399190610b4c565b9081526020016040518091039020600082015181600001908161015c9190610dec565b5060208201518160010190816101729190610dec565b5060408201518160020190816101889190610dec565b50606082015181600301908161019e9190610dec565b5060808201518160040190816101b49190610dec565b5060a0820151816005015560c08201518160060190816101d49190610dec565b509050507f636332d090a3ce7923247f61b33630c2b87536ffe4bb41e9250a40ff89f272c0878787878787876040516102139796959493929190610f06565b60405180910390a150505050505050565b61022c610641565b6000808360405161023d9190610b4c565b9081526020016040518091039020600001805461025990610b92565b90500361029b576040517f08c379a000000000000000000000000000000000000000000000000000000000815260040161029290610feb565b60405180910390fd5b6000826040516102ab9190610b4c565b90815260200160405180910390206040518060e00160405290816000820180546102d490610b92565b80601f016020809104026020016040519081016040528092919081815260200182805461030090610b92565b801561034d5780601f106103225761010080835404028352916020019161034d565b820191906000526020600020905b81548152906001019060200180831161033057829003601f168201915b5050505050815260200160018201805461036690610b92565b80601f016020809104026020016040519081016040528092919081815260200182805461039290610b92565b80156103df5780601f106103b4576101008083540402835291602001916103df565b820191906000526020600020905b8154815290600101906020018083116103c257829003601f168201915b505050505081526020016002820180546103f890610b92565b80601f016020809104026020016040519081016040528092919081815260200182805461042490610b92565b80156104715780601f1061044657610100808354040283529160200191610471565b820191906000526020600020905b81548152906001019060200180831161045457829003601f168201915b5050505050815260200160038201805461048a90610b92565b80601f01602080910402602001604051908101604052809291908181526020018280546104b690610b92565b80156105035780601f106104d857610100808354040283529160200191610503565b820191906000526020600020905b8154815290600101906020018083116104e657829003601f168201915b5050505050815260200160048201805461051c90610b92565b80601f016020809104026020016040519081016040528092919081815260200182805461054890610b92565b80156105955780601f1061056a57610100808354040283529160200191610595565b820191906000526020600020905b81548152906001019060200180831161057857829003601f168201915b50505050508152602001600582015481526020016006820180546105b890610b92565b80601f01602080910402602001604051908101604052809291908181526020018280546105e490610b92565b80156106315780601f1061060657610100808354040283529160200191610631565b820191906000526020600020905b81548152906001019060200180831161061457829003601f168201915b5050505050815250509050919050565b6040518060e00160405280606081526020016060815260200160608152602001606081526020016060815260200160008152602001606081525090565b6000604051905090565b600080fd5b600080fd5b600080fd5b600080fd5b6000601f19601f8301169050919050565b7f4e487b7100000000000000000000000000000000000000000000000000000000600052604160045260246000fd5b6106e58261069c565b810181811067ffffffffffffffff82111715610704576107036106ad565b5b80604052505050565b600061071761067e565b905061072382826106dc565b919050565b600067ffffffffffffffff821115610743576107426106ad565b5b61074c8261069c565b9050602081019050919050565b82818337600083830152505050565b600061077b61077684610728565b61070d565b90508281526020810184848401111561079757610796610697565b5b6107a2848285610759565b509392505050565b600082601f8301126107bf576107be610692565b5b81356107cf848260208601610768565b91505092915050565b6000819050919050565b6107eb816107d8565b81146107f657600080fd5b50565b600081359050610808816107e2565b92915050565b600080600080600080600060e0888a03121561082d5761082c610688565b5b600088013567ffffffffffffffff81111561084b5761084a61068d565b5b6108578a828b016107aa565b975050602088013567ffffffffffffffff8111156108785761087761068d565b5b6108848a828b016107aa565b965050604088013567ffffffffffffffff8111156108a5576108a461068d565b5b6108b18a828b016107aa565b955050606088013567ffffffffffffffff8111156108d2576108d161068d565b5b6108de8a828b016107aa565b945050608088013567ffffffffffffffff8111156108ff576108fe61068d565b5b61090b8a828b016107aa565b93505060a061091c8a828b016107f9565b92505060c088013567ffffffffffffffff81111561093d5761093c61068d565b5b6109498a828b016107aa565b91505092959891949750929550565b60006020828403121561096e5761096d610688565b5b600082013567ffffffffffffffff81111561098c5761098b61068d565b5b610998848285016107aa565b91505092915050565b600081519050919050565b600082825260208201905092915050565b60005b838110156109db5780820151818401526020810190506109c0565b60008484015250505050565b60006109f2826109a1565b6109fc81856109ac565b9350610a0c8185602086016109bd565b610a158161069c565b840191505092915050565b610a29816107d8565b82525050565b600060e0830160008301518482036000860152610a4c82826109e7565b91505060208301518482036020860152610a6682826109e7565b91505060408301518482036040860152610a8082826109e7565b91505060608301518482036060860152610a9a82826109e7565b91505060808301518482036080860152610ab482826109e7565b91505060a0830151610ac960a0860182610a20565b5060c083015184820360c0860152610ae182826109e7565b9150508091505092915050565b60006020820190508181036000830152610b088184610a2f565b905092915050565b600081905092915050565b6000610b26826109a1565b610b308185610b10565b9350610b408185602086016109bd565b80840191505092915050565b6000610b588284610b1b565b915081905092915050565b7f4e487b7100000000000000000000000000000000000000000000000000000000600052602260045260246000fd5b60006002820490506001821680610baa57607f821691505b602082108103610bbd57610bbc610b63565b5b50919050565b600082825260208201905092915050565b7f436572746966696361746520616c726561647920657869737473000000000000600082015250565b6000610c0a601a83610bc3565b9150610c1582610bd4565b602082019050919050565b60006020820190508181036000830152610c3981610bfd565b9050919050565b60008190508160005260206000209050919050565b60006020601f8301049050919050565b600082821b905092915050565b600060088302610ca27fffffffffffffffffffffffffffffffffffffffffffffffffffffffffffffffff82610c65565b610cac8683610c65565b95508019841693508086168417925050509392505050565b6000819050919050565b6000610ce9610ce4610cdf846107d8565b610cc4565b6107d8565b9050919050565b6000819050919050565b610d0383610cce565b610d17610d0f82610cf0565b848454610c72565b825550505050565b600090565b610d2c610d1f565b610d37818484610cfa565b505050565b5b81811015610d5b57610d50600082610d24565b600181019050610d3d565b5050565b601f821115610da057610d7181610c40565b610d7a84610c55565b81016020851015610d89578190505b610d9d610d9585610c55565b830182610d3c565b50505b505050565b600082821c905092915050565b6000610dc360001984600802610da5565b1980831691505092915050565b6000610ddc8383610db2565b9150826002028217905092915050565b610df5826109a1565b67ffffffffffffffff811115610e0e57610e0d6106ad565b5b610e188254610b92565b610e23828285610d5f565b600060209050601f831160018114610e565760008415610e44578287015190505b610e4e8582610dd0565b865550610eb6565b601f198416610e6486610c40565b60005b82811015610e8c57848901518255600182019150602085019450602081019050610e67565b86831015610ea95784890151610ea5601f891682610db2565b8355505b6001600288020188555050505b505050505050565b6000610ec9826109a1565b610ed38185610bc3565b9350610ee38185602086016109bd565b610eec8161069c565b840191505092915050565b610f00816107d8565b82525050565b600060e0820190508181036000830152610f20818a610ebe565b90508181036020830152610f348189610ebe565b90508181036040830152610f488188610ebe565b90508181036060830152610f5c8187610ebe565b90508181036080830152610f708186610ebe565b9050610f7f60a0830185610ef7565b81810360c0830152610f918184610ebe565b905098975050505050505050565b7f436572746966696361746520646f6573206e6f74206578697374000000000000600082015250565b6000610fd5601a83610bc3565b9150610fe082610f9f565b602082019050919050565b6000602082019050818103600083015261100481610fc8565b905091905056fea264697066735822122098cfa32e425813f7cc2d7ceba6edfa53f090aafb7f8db9ea308f0a78750e8cff64736f6c634300081b0033",
  "linkReferences": {},
  "deployedLinkReferences": {}
}