{
  "_format": "hh-sol-artifact-1",
  "contractName": "MainContract",
  "sourceName": "contracts/MainContract.sol",
  "abi": [
    {
      "anonymous": false,
      "inputs": [
        {
          "indexed": false,
          "internalType": "string",
          "name": "certificateId",
          "type": "string"
        },
        {
          "indexed": false,
          "internalType": "string",
          "name": "action",
          "type": "string"
        },
        {
          "indexed": false,
          "internalType": "string",
          "name": "participantId",
          "type": "string"
        }
      ],
      "name": "AuditTrailAdded",
      "type": "event"
    },
    {
      "anonymous": false,
      "inputs": [
        {
          "indexed": false,
          "internalType": "string",
          "name": "id",
          "type": "string"
        },
        {
          "indexed": false,
          "internalType": "string",
          "name": "batchCode",
          "type": "string"
        }
      ],
      "name": "CertificateCreated",
      "type": "event"
    },
    {
      "anonymous": false,
      "inputs": [
        {
          "indexed": false,
          "internalType": "string",
          "name": "certificateId",
          "type": "string"
        },
        {
          "indexed": false,
          "internalType": "string",
          "name": "from",
          "type": "string"
        },
        {
          "indexed": false,
          "internalType": "string",
          "name": "to",
          "type": "string"
        }
      ],
      "name": "OwnershipTransferred",
      "type": "event"
    },
    {
      "inputs": [
        {
          "internalType": "string",
          "name": "certificateId",
          "type": "string"
        },
        {
          "internalType": "string",
          "name": "participantId",
          "type": "string"
        },
        {
          "internalType": "string",
          "name": "participantName",
          "type": "string"
        },
        {
          "internalType": "string",
          "name": "participantRole",
          "type": "string"
        },
        {
          "internalType": "string",
          "name": "action",
          "type": "string"
        }
      ],
      "name": "addAuditTrail",
      "outputs": [],
      "stateMutability": "nonpayable",
      "type": "function"
    },
    {
      "inputs": [
        {
          "internalType": "string",
          "name": "id",
          "type": "string"
        },
        {
          "internalType": "string",
          "name": "batchCode",
          "type": "string"
        },
        {
          "internalType": "string",
          "name": "state",
          "type": "string"
        },
        {
          "internalType": "string",
          "name": "price",
          "type": "string"
        },
        {
          "internalType": "string",
          "name": "description",
          "type": "string"
        },
        {
          "internalType": "uint256",
          "name": "productionDate",
          "type": "uint256"
        },
        {
          "internalType": "string",
          "name": "signature",
          "type": "string"
        }
      ],
      "name": "createCertificate",
      "outputs": [],
      "stateMutability": "nonpayable",
      "type": "function"
    },
    {
      "inputs": [
        {
          "internalType": "string",
          "name": "certificateId",
          "type": "string"
        }
      ],
      "name": "getAuditTrails",
      "outputs": [
        {
          "components": [
            {
              "components": [
                {
                  "internalType": "string",
                  "name": "id",
                  "type": "string"
                },
                {
                  "internalType": "string",
                  "name": "name",
                  "type": "string"
                },
                {
                  "internalType": "string",
                  "name": "role",
                  "type": "string"
                }
              ],
              "internalType": "struct AuditTrailManager.Participant",
              "name": "participant",
              "type": "tuple"
            },
            {
              "internalType": "string",
              "name": "action",
              "type": "string"
            },
            {
              "internalType": "uint256",
              "name": "timestamp",
              "type": "uint256"
            }
          ],
          "internalType": "struct AuditTrailManager.AuditTrail[]",
          "name": "",
          "type": "tuple[]"
        }
      ],
      "stateMutability": "view",
      "type": "function"
    },
    {
      "inputs": [
        {
          "internalType": "string",
          "name": "id",
          "type": "string"
        }
      ],
      "name": "getCertificate",
      "outputs": [
        {
          "components": [
            {
              "internalType": "string",
              "name": "id",
              "type": "string"
            },
            {
              "internalType": "string",
              "name": "batchCode",
              "type": "string"
            },
            {
              "internalType": "string",
              "name": "state",
              "type": "string"
            },
            {
              "internalType": "string",
              "name": "price",
              "type": "string"
            },
            {
              "internalType": "string",
              "name": "description",
              "type": "string"
            },
            {
              "internalType": "uint256",
              "name": "productionDate",
              "type": "uint256"
            },
            {
              "internalType": "string",
              "name": "signature",
              "type": "string"
            }
          ],
          "internalType": "struct CertificateManager.Certificate",
          "name": "",
          "type": "tuple"
        }
      ],
      "stateMutability": "view",
      "type": "function"
    },
    {
      "inputs": [
        {
          "internalType": "string",
          "name": "certificateId",
          "type": "string"
        }
      ],
      "name": "getOwnershipHistory",
      "outputs": [
        {
          "components": [
            {
              "internalType": "string",
              "name": "ownerId",
              "type": "string"
            },
            {
              "internalType": "uint256",
              "name": "transactionDate",
              "type": "uint256"
            }
          ],
          "internalType": "struct OwnershipManager.Ownership[]",
          "name": "",
          "type": "tuple[]"
        }
      ],
      "stateMutability": "view",
      "type": "function"
    },
    {
      "inputs": [
        {
          "internalType": "string",
          "name": "certificateId",
          "type": "string"
        },
        {
          "internalType": "string",
          "name": "newOwnerId",
          "type": "string"
        }
      ],
      "name": "transferOwnership",
      "outputs": [],
      "stateMutability": "nonpayable",
      "type": "function"
    }
  ],
  "bytecode": "0x6080604052348015600f57600080fd5b50611e8b8061001f6000396000f3fe608060405234801561001057600080fd5b50600436106100615760003560e01c8062c966be1461006657806321e7984214610096578063268ca07e146100c6578063ec7d8dce146100e2578063ed0f2e75146100fe578063f96f03b41461012e575b600080fd5b610080600480360381019061007b91906110ac565b61014a565b60405161008d919061128c565b60405180910390f35b6100b060048036038101906100ab91906110ac565b6102d2565b6040516100bd9190611425565b60405180910390f35b6100e060048036038101906100db9190611447565b610624565b005b6100fc60048036038101906100f791906114eb565b6107c3565b005b610118600480360381019061011391906110ac565b610956565b60405161012591906116f4565b60405180910390f35b61014860048036038101906101439190611716565b610d73565b005b60606000808360405161015d9190611859565b908152602001604051809103902060000180546101799061189f565b9050036101bb576040517f08c379a00000000000000000000000000000000000000000000000000000000081526004016101b29061192d565b60405180910390fd5b6002826040516101cb9190611859565b9081526020016040518091039020805480602002602001604051908101604052809291908181526020016000905b828210156102c7578382906000526020600020906002020160405180604001604052908160008201805461022c9061189f565b80601f01602080910402602001604051908101604052809291908181526020018280546102589061189f565b80156102a55780601f1061027a576101008083540402835291602001916102a5565b820191906000526020600020905b81548152906001019060200180831161028857829003601f168201915b50505050508152602001600182015481525050815260200190600101906101f9565b505050509050919050565b6060600080836040516102e59190611859565b908152602001604051809103902060000180546103019061189f565b905003610343576040517f08c379a000000000000000000000000000000000000000000000000000000000815260040161033a9061192d565b60405180910390fd5b6001826040516103539190611859565b9081526020016040518091039020805480602002602001604051908101604052809291908181526020016000905b828210156106195783829060005260206000209060050201604051806060016040529081600082016040518060600160405290816000820180546103c49061189f565b80601f01602080910402602001604051908101604052809291908181526020018280546103f09061189f565b801561043d5780601f106104125761010080835404028352916020019161043d565b820191906000526020600020905b81548152906001019060200180831161042057829003601f168201915b505050505081526020016001820180546104569061189f565b80601f01602080910402602001604051908101604052809291908181526020018280546104829061189f565b80156104cf5780601f106104a4576101008083540402835291602001916104cf565b820191906000526020600020905b8154815290600101906020018083116104b257829003601f168201915b505050505081526020016002820180546104e89061189f565b80601f01602080910402602001604051908101604052809291908181526020018280546105149061189f565b80156105615780601f1061053657610100808354040283529160200191610561565b820191906000526020600020905b81548152906001019060200180831161054457829003601f168201915b505050505081525050815260200160038201805461057e9061189f565b80601f01602080910402602001604051908101604052809291908181526020018280546105aa9061189f565b80156105f75780601f106105cc576101008083540402835291602001916105f7565b820191906000526020600020905b8154815290600101906020018083116105da57829003601f168201915b5050505050815260200160048201548152505081526020019060010190610381565b505050509050919050565b600080836040516106359190611859565b908152602001604051809103902060000180546106519061189f565b905003610693576040517f08c379a000000000000000000000000000000000000000000000000000000000815260040161068a9061192d565b60405180910390fd5b600060405180604001604052808381526020014281525090506002836040516106bc9190611859565b908152602001604051809103902081908060018154018082558091505060019003906000526020600020906002020160009091909190915060008201518160000190816107099190611af9565b506020820151816001015550507f40a3f66a832bb0cf8c53eda9cedc649b2f15f241ae58b3664a2c4d6f24ae8011836002856040516107489190611859565b908152602001604051809103902060016002876040516107689190611859565b9081526020016040518091039020805490506107849190611bfa565b8154811061079557610794611c2e565b5b9060005260206000209060020201600001846040516107b693929190611d1a565b60405180910390a1505050565b600080886040516107d49190611859565b908152602001604051809103902060000180546107f09061189f565b905014610832576040517f08c379a000000000000000000000000000000000000000000000000000000000815260040161082990611db2565b60405180910390fd5b6040518060e00160405280888152602001878152602001868152602001858152602001848152602001838152602001828152506000886040516108759190611859565b908152602001604051809103902060008201518160000190816108989190611af9565b5060208201518160010190816108ae9190611af9565b5060408201518160020190816108c49190611af9565b5060608201518160030190816108da9190611af9565b5060808201518160040190816108f09190611af9565b5060a0820151816005015560c08201518160060190816109109190611af9565b509050507f6ceea4f52e460c28d201f4d748225c19feacce4921bcb49d99618b065fe1c7c58787604051610945929190611dd2565b60405180910390a150505050505050565b61095e610f15565b6000808360405161096f9190611859565b9081526020016040518091039020600001805461098b9061189f565b9050036109cd576040517f08c379a00000000000000000000000000000000000000000000000000000000081526004016109c49061192d565b60405180910390fd5b6000826040516109dd9190611859565b90815260200160405180910390206040518060e0016040529081600082018054610a069061189f565b80601f0160208091040260200160405190810160405280929190818152602001828054610a329061189f565b8015610a7f5780601f10610a5457610100808354040283529160200191610a7f565b820191906000526020600020905b815481529060010190602001808311610a6257829003601f168201915b50505050508152602001600182018054610a989061189f565b80601f0160208091040260200160405190810160405280929190818152602001828054610ac49061189f565b8015610b115780601f10610ae657610100808354040283529160200191610b11565b820191906000526020600020905b815481529060010190602001808311610af457829003601f168201915b50505050508152602001600282018054610b2a9061189f565b80601f0160208091040260200160405190810160405280929190818152602001828054610b569061189f565b8015610ba35780601f10610b7857610100808354040283529160200191610ba3565b820191906000526020600020905b815481529060010190602001808311610b8657829003601f168201915b50505050508152602001600382018054610bbc9061189f565b80601f0160208091040260200160405190810160405280929190818152602001828054610be89061189f565b8015610c355780601f10610c0a57610100808354040283529160200191610c35565b820191906000526020600020905b815481529060010190602001808311610c1857829003601f168201915b50505050508152602001600482018054610c4e9061189f565b80601f0160208091040260200160405190810160405280929190818152602001828054610c7a9061189f565b8015610cc75780601f10610c9c57610100808354040283529160200191610cc7565b820191906000526020600020905b815481529060010190602001808311610caa57829003601f168201915b5050505050815260200160058201548152602001600682018054610cea9061189f565b80601f0160208091040260200160405190810160405280929190818152602001828054610d169061189f565b8015610d635780601f10610d3857610100808354040283529160200191610d63565b820191906000526020600020905b815481529060010190602001808311610d4657829003601f168201915b5050505050815250509050919050565b60008086604051610d849190611859565b90815260200160405180910390206000018054610da09061189f565b905003610de2576040517f08c379a0000000000000000000000000000000000000000000000000000000008152600401610dd99061192d565b60405180910390fd5b600060405180606001604052806040518060600160405280888152602001878152602001868152508152602001838152602001428152509050600186604051610e2b9190611859565b90815260200160405180910390208190806001815401808255809150506001900390600052602060002090600502016000909190919091506000820151816000016000820151816000019081610e819190611af9565b506020820151816001019081610e979190611af9565b506040820151816002019081610ead9190611af9565b5050506020820151816003019081610ec59190611af9565b506040820151816004015550507fd204d2da1a206d3a869a0b3afaf92427860895ab775078e9525b1bc1cafa75dd868387604051610f0593929190611e09565b60405180910390a1505050505050565b6040518060e00160405280606081526020016060815260200160608152602001606081526020016060815260200160008152602001606081525090565b6000604051905090565b600080fd5b600080fd5b600080fd5b600080fd5b6000601f19601f8301169050919050565b7f4e487b7100000000000000000000000000000000000000000000000000000000600052604160045260246000fd5b610fb982610f70565b810181811067ffffffffffffffff82111715610fd857610fd7610f81565b5b80604052505050565b6000610feb610f52565b9050610ff78282610fb0565b919050565b600067ffffffffffffffff82111561101757611016610f81565b5b61102082610f70565b9050602081019050919050565b82818337600083830152505050565b600061104f61104a84610ffc565b610fe1565b90508281526020810184848401111561106b5761106a610f6b565b5b61107684828561102d565b509392505050565b600082601f83011261109357611092610f66565b5b81356110a384826020860161103c565b91505092915050565b6000602082840312156110c2576110c1610f5c565b5b600082013567ffffffffffffffff8111156110e0576110df610f61565b5b6110ec8482850161107e565b91505092915050565b600081519050919050565b600082825260208201905092915050565b6000819050602082019050919050565b600081519050919050565b600082825260208201905092915050565b60005b8381101561115b578082015181840152602081019050611140565b60008484015250505050565b600061117282611121565b61117c818561112c565b935061118c81856020860161113d565b61119581610f70565b840191505092915050565b6000819050919050565b6111b3816111a0565b82525050565b600060408301600083015184820360008601526111d68282611167565b91505060208301516111eb60208601826111aa565b508091505092915050565b600061120283836111b9565b905092915050565b6000602082019050919050565b6000611222826110f5565b61122c8185611100565b93508360208202850161123e85611111565b8060005b8581101561127a578484038952815161125b85826111f6565b94506112668361120a565b925060208a01995050600181019050611242565b50829750879550505050505092915050565b600060208201905081810360008301526112a68184611217565b905092915050565b600081519050919050565b600082825260208201905092915050565b6000819050602082019050919050565b600060608301600083015184820360008601526112f78282611167565b915050602083015184820360208601526113118282611167565b9150506040830151848203604086015261132b8282611167565b9150508091505092915050565b6000606083016000830151848203600086015261135582826112da565b9150506020830151848203602086015261136f8282611167565b915050604083015161138460408601826111aa565b508091505092915050565b600061139b8383611338565b905092915050565b6000602082019050919050565b60006113bb826112ae565b6113c581856112b9565b9350836020820285016113d7856112ca565b8060005b8581101561141357848403895281516113f4858261138f565b94506113ff836113a3565b925060208a019950506001810190506113db565b50829750879550505050505092915050565b6000602082019050818103600083015261143f81846113b0565b905092915050565b6000806040838503121561145e5761145d610f5c565b5b600083013567ffffffffffffffff81111561147c5761147b610f61565b5b6114888582860161107e565b925050602083013567ffffffffffffffff8111156114a9576114a8610f61565b5b6114b58582860161107e565b9150509250929050565b6114c8816111a0565b81146114d357600080fd5b50565b6000813590506114e5816114bf565b92915050565b600080600080600080600060e0888a03121561150a57611509610f5c565b5b600088013567ffffffffffffffff81111561152857611527610f61565b5b6115348a828b0161107e565b975050602088013567ffffffffffffffff81111561155557611554610f61565b5b6115618a828b0161107e565b965050604088013567ffffffffffffffff81111561158257611581610f61565b5b61158e8a828b0161107e565b955050606088013567ffffffffffffffff8111156115af576115ae610f61565b5b6115bb8a828b0161107e565b945050608088013567ffffffffffffffff8111156115dc576115db610f61565b5b6115e88a828b0161107e565b93505060a06115f98a828b016114d6565b92505060c088013567ffffffffffffffff81111561161a57611619610f61565b5b6116268a828b0161107e565b91505092959891949750929550565b600060e08301600083015184820360008601526116528282611167565b9150506020830151848203602086015261166c8282611167565b915050604083015184820360408601526116868282611167565b915050606083015184820360608601526116a08282611167565b915050608083015184820360808601526116ba8282611167565b91505060a08301516116cf60a08601826111aa565b5060c083015184820360c08601526116e78282611167565b9150508091505092915050565b6000602082019050818103600083015261170e8184611635565b905092915050565b600080600080600060a0868803121561173257611731610f5c565b5b600086013567ffffffffffffffff8111156117505761174f610f61565b5b61175c8882890161107e565b955050602086013567ffffffffffffffff81111561177d5761177c610f61565b5b6117898882890161107e565b945050604086013567ffffffffffffffff8111156117aa576117a9610f61565b5b6117b68882890161107e565b935050606086013567ffffffffffffffff8111156117d7576117d6610f61565b5b6117e38882890161107e565b925050608086013567ffffffffffffffff81111561180457611803610f61565b5b6118108882890161107e565b9150509295509295909350565b600081905092915050565b600061183382611121565b61183d818561181d565b935061184d81856020860161113d565b80840191505092915050565b60006118658284611828565b915081905092915050565b7f4e487b7100000000000000000000000000000000000000000000000000000000600052602260045260246000fd5b600060028204905060018216806118b757607f821691505b6020821081036118ca576118c9611870565b5b50919050565b600082825260208201905092915050565b7f436572746966696361746520646f6573206e6f74206578697374000000000000600082015250565b6000611917601a836118d0565b9150611922826118e1565b602082019050919050565b600060208201905081810360008301526119468161190a565b9050919050565b60008190508160005260206000209050919050565b60006020601f8301049050919050565b600082821b905092915050565b6000600883026119af7fffffffffffffffffffffffffffffffffffffffffffffffffffffffffffffffff82611972565b6119b98683611972565b95508019841693508086168417925050509392505050565b6000819050919050565b60006119f66119f16119ec846111a0565b6119d1565b6111a0565b9050919050565b6000819050919050565b611a10836119db565b611a24611a1c826119fd565b84845461197f565b825550505050565b600090565b611a39611a2c565b611a44818484611a07565b505050565b5b81811015611a6857611a5d600082611a31565b600181019050611a4a565b5050565b601f821115611aad57611a7e8161194d565b611a8784611962565b81016020851015611a96578190505b611aaa611aa285611962565b830182611a49565b50505b505050565b600082821c905092915050565b6000611ad060001984600802611ab2565b1980831691505092915050565b6000611ae98383611abf565b9150826002028217905092915050565b611b0282611121565b67ffffffffffffffff811115611b1b57611b1a610f81565b5b611b25825461189f565b611b30828285611a6c565b600060209050601f831160018114611b635760008415611b51578287015190505b611b5b8582611add565b865550611bc3565b601f198416611b718661194d565b60005b82811015611b9957848901518255600182019150602085019450602081019050611b74565b86831015611bb65784890151611bb2601f891682611abf565b8355505b6001600288020188555050505b505050505050565b7f4e487b7100000000000000000000000000000000000000000000000000000000600052601160045260246000fd5b6000611c05826111a0565b9150611c10836111a0565b9250828203905081811115611c2857611c27611bcb565b5b92915050565b7f4e487b7100000000000000000000000000000000000000000000000000000000600052603260045260246000fd5b6000611c6882611121565b611c7281856118d0565b9350611c8281856020860161113d565b611c8b81610f70565b840191505092915050565b60008154611ca38161189f565b611cad81866118d0565b94506001821660008114611cc85760018114611cde57611d11565b60ff198316865281151560200286019350611d11565b611ce78561194d565b60005b83811015611d0957815481890152600182019150602081019050611cea565b808801955050505b50505092915050565b60006060820190508181036000830152611d348186611c5d565b90508181036020830152611d488185611c96565b90508181036040830152611d5c8184611c5d565b9050949350505050565b7f436572746966696361746520616c726561647920657869737473000000000000600082015250565b6000611d9c601a836118d0565b9150611da782611d66565b602082019050919050565b60006020820190508181036000830152611dcb81611d8f565b9050919050565b60006040820190508181036000830152611dec8185611c5d565b90508181036020830152611e008184611c5d565b90509392505050565b60006060820190508181036000830152611e238186611c5d565b90508181036020830152611e378185611c5d565b90508181036040830152611e4b8184611c5d565b905094935050505056fea2646970667358221220d4f026b97cf8f9c19ef969c926030181c9668bac10e8ed9bb2684d45fddba54f64736f6c634300081b0033",
  "linkReferences": {},
  "deployedLinkReferences": {}
}