{
  "_format": "hh-sol-artifact-1",
  "contractName": "TestContract",
  "sourceName": "contracts/TestContract.sol",
  "abi": [
    {
      "anonymous": false,
      "inputs": [
        {
          "indexed": false,
          "internalType": "string",
          "name": "id",
          "type": "string"
        },
        {
          "indexed": false,
          "internalType": "uint256",
          "name": "number",
          "type": "uint256"
        }
      ],
      "name": "TestCreated",
      "type": "event"
    },
    {
      "inputs": [
        {
          "internalType": "string",
          "name": "id",
          "type": "string"
        },
        {
          "internalType": "uint256",
          "name": "number",
          "type": "uint256"
        }
      ],
      "name": "createTest",
      "outputs": [],
      "stateMutability": "nonpayable",
      "type": "function"
    },
    {
      "inputs": [
        {
          "internalType": "string",
          "name": "",
          "type": "string"
        }
      ],
      "name": "tests",
      "outputs": [
        {
          "internalType": "string",
          "name": "id",
          "type": "string"
        },
        {
          "internalType": "uint256",
          "name": "number",
          "type": "uint256"
        }
      ],
      "stateMutability": "view",
      "type": "function"
    }
  ],
  "bytecode": "0x6080604052348015600f57600080fd5b506109128061001f6000396000f3fe608060405234801561001057600080fd5b50600436106100365760003560e01c806386fa99891461003b5780638ff0e59614610057575b600080fd5b610055600480360381019061005091906103dc565b610088565b005b610071600480360381019061006c9190610438565b61018a565b60405161007f92919061050f565b60405180910390f35b60008083604051610099919061057b565b908152602001604051809103902060000180546100b5906105c1565b9050146100f7576040517f08c379a00000000000000000000000000000000000000000000000000000000081526004016100ee9061063e565b60405180910390fd5b60405180604001604052808381526020018281525060008360405161011c919061057b565b9081526020016040518091039020600082015181600001908161013f919061080a565b50602082015181600101559050507f475e7c019a05bb5ddd7bb997356710cee365d13c38946b0eb7d552f4ade1f6b5828260405161017e92919061050f565b60405180910390a15050565b6000818051602081018201805184825260208301602085012081835280955050505050506000915090508060000180546101c3906105c1565b80601f01602080910402602001604051908101604052809291908181526020018280546101ef906105c1565b801561023c5780601f106102115761010080835404028352916020019161023c565b820191906000526020600020905b81548152906001019060200180831161021f57829003601f168201915b5050505050908060010154905082565b6000604051905090565b600080fd5b600080fd5b600080fd5b600080fd5b6000601f19601f8301169050919050565b7f4e487b7100000000000000000000000000000000000000000000000000000000600052604160045260246000fd5b6102b38261026a565b810181811067ffffffffffffffff821117156102d2576102d161027b565b5b80604052505050565b60006102e561024c565b90506102f182826102aa565b919050565b600067ffffffffffffffff8211156103115761031061027b565b5b61031a8261026a565b9050602081019050919050565b82818337600083830152505050565b6000610349610344846102f6565b6102db565b90508281526020810184848401111561036557610364610265565b5b610370848285610327565b509392505050565b600082601f83011261038d5761038c610260565b5b813561039d848260208601610336565b91505092915050565b6000819050919050565b6103b9816103a6565b81146103c457600080fd5b50565b6000813590506103d6816103b0565b92915050565b600080604083850312156103f3576103f2610256565b5b600083013567ffffffffffffffff8111156104115761041061025b565b5b61041d85828601610378565b925050602061042e858286016103c7565b9150509250929050565b60006020828403121561044e5761044d610256565b5b600082013567ffffffffffffffff81111561046c5761046b61025b565b5b61047884828501610378565b91505092915050565b600081519050919050565b600082825260208201905092915050565b60005b838110156104bb5780820151818401526020810190506104a0565b60008484015250505050565b60006104d282610481565b6104dc818561048c565b93506104ec81856020860161049d565b6104f58161026a565b840191505092915050565b610509816103a6565b82525050565b6000604082019050818103600083015261052981856104c7565b90506105386020830184610500565b9392505050565b600081905092915050565b600061055582610481565b61055f818561053f565b935061056f81856020860161049d565b80840191505092915050565b6000610587828461054a565b915081905092915050565b7f4e487b7100000000000000000000000000000000000000000000000000000000600052602260045260246000fd5b600060028204905060018216806105d957607f821691505b6020821081036105ec576105eb610592565b5b50919050565b7f546573742077697468207468697320494420616c726561647920657869737473600082015250565b600061062860208361048c565b9150610633826105f2565b602082019050919050565b600060208201905081810360008301526106578161061b565b9050919050565b60008190508160005260206000209050919050565b60006020601f8301049050919050565b600082821b905092915050565b6000600883026106c07fffffffffffffffffffffffffffffffffffffffffffffffffffffffffffffffff82610683565b6106ca8683610683565b95508019841693508086168417925050509392505050565b6000819050919050565b60006107076107026106fd846103a6565b6106e2565b6103a6565b9050919050565b6000819050919050565b610721836106ec565b61073561072d8261070e565b848454610690565b825550505050565b600090565b61074a61073d565b610755818484610718565b505050565b5b818110156107795761076e600082610742565b60018101905061075b565b5050565b601f8211156107be5761078f8161065e565b61079884610673565b810160208510156107a7578190505b6107bb6107b385610673565b83018261075a565b50505b505050565b600082821c905092915050565b60006107e1600019846008026107c3565b1980831691505092915050565b60006107fa83836107d0565b9150826002028217905092915050565b61081382610481565b67ffffffffffffffff81111561082c5761082b61027b565b5b61083682546105c1565b61084182828561077d565b600060209050601f8311600181146108745760008415610862578287015190505b61086c85826107ee565b8655506108d4565b601f1984166108828661065e565b60005b828110156108aa57848901518255600182019150602085019450602081019050610885565b868310156108c757848901516108c3601f8916826107d0565b8355505b6001600288020188555050505b50505050505056fea26469706673582212202873c395839987f1e186670913dcddca529cce41a6c79022137c690a446b9afe64736f6c634300081b0033",
  "linkReferences": {},
  "deployedLinkReferences": {}
}