{
  "_format": "hh-sol-artifact-1",
  "contractName": "JewelryAccessControl",
  "sourceName": "contracts/AccessControl.sol",
  "abi": [
    {
      "inputs": [],
      "stateMutability": "nonpayable",
      "type": "constructor"
    },
    {
      "inputs": [],
      "name": "AccessControlBadConfirmation",
      "type": "error"
    },
    {
      "inputs": [
        {
          "internalType": "address",
          "name": "account",
          "type": "address"
        },
        {
          "internalType": "bytes32",
          "name": "neededRole",
          "type": "bytes32"
        }
      ],
      "name": "AccessControlUnauthorizedAccount",
      "type": "error"
    },
    {
      "anonymous": false,
      "inputs": [
        {
          "indexed": true,
          "internalType": "bytes32",
          "name": "role",
          "type": "bytes32"
        },
        {
          "indexed": true,
          "internalType": "bytes32",
          "name": "previousAdminRole",
          "type": "bytes32"
        },
        {
          "indexed": true,
          "internalType": "bytes32",
          "name": "newAdminRole",
          "type": "bytes32"
        }
      ],
      "name": "RoleAdminChanged",
      "type": "event"
    },
    {
      "anonymous": false,
      "inputs": [
        {
          "indexed": true,
          "internalType": "bytes32",
          "name": "role",
          "type": "bytes32"
        },
        {
          "indexed": true,
          "internalType": "address",
          "name": "account",
          "type": "address"
        },
        {
          "indexed": true,
          "internalType": "address",
          "name": "sender",
          "type": "address"
        }
      ],
      "name": "RoleGranted",
      "type": "event"
    },
    {
      "anonymous": false,
      "inputs": [
        {
          "indexed": true,
          "internalType": "bytes32",
          "name": "role",
          "type": "bytes32"
        },
        {
          "indexed": true,
          "internalType": "address",
          "name": "account",
          "type": "address"
        },
        {
          "indexed": true,
          "internalType": "address",
          "name": "sender",
          "type": "address"
        }
      ],
      "name": "RoleRevoked",
      "type": "event"
    },
    {
      "inputs": [],
      "name": "CUTTER_ROLE",
      "outputs": [
        {
          "internalType": "bytes32",
          "name": "",
          "type": "bytes32"
        }
      ],
      "stateMutability": "view",
      "type": "function"
    },
    {
      "inputs": [],
      "name": "DEFAULT_ADMIN_ROLE",
      "outputs": [
        {
          "internalType": "bytes32",
          "name": "",
          "type": "bytes32"
        }
      ],
      "stateMutability": "view",
      "type": "function"
    },
    {
      "inputs": [],
      "name": "JEWELER_ROLE",
      "outputs": [
        {
          "internalType": "bytes32",
          "name": "",
          "type": "bytes32"
        }
      ],
      "stateMutability": "view",
      "type": "function"
    },
    {
      "inputs": [],
      "name": "LAB_ROLE",
      "outputs": [
        {
          "internalType": "bytes32",
          "name": "",
          "type": "bytes32"
        }
      ],
      "stateMutability": "view",
      "type": "function"
    },
    {
      "inputs": [],
      "name": "MINER_ROLE",
      "outputs": [
        {
          "internalType": "bytes32",
          "name": "",
          "type": "bytes32"
        }
      ],
      "stateMutability": "view",
      "type": "function"
    },
    {
      "inputs": [
        {
          "internalType": "bytes32",
          "name": "role",
          "type": "bytes32"
        }
      ],
      "name": "getRoleAdmin",
      "outputs": [
        {
          "internalType": "bytes32",
          "name": "",
          "type": "bytes32"
        }
      ],
      "stateMutability": "view",
      "type": "function"
    },
    {
      "inputs": [
        {
          "internalType": "bytes32",
          "name": "role",
          "type": "bytes32"
        },
        {
          "internalType": "address",
          "name": "account",
          "type": "address"
        }
      ],
      "name": "grantRole",
      "outputs": [],
      "stateMutability": "nonpayable",
      "type": "function"
    },
    {
      "inputs": [
        {
          "internalType": "bytes32",
          "name": "role",
          "type": "bytes32"
        },
        {
          "internalType": "address",
          "name": "account",
          "type": "address"
        }
      ],
      "name": "hasRole",
      "outputs": [
        {
          "internalType": "bool",
          "name": "",
          "type": "bool"
        }
      ],
      "stateMutability": "view",
      "type": "function"
    },
    {
      "inputs": [
        {
          "internalType": "bytes32",
          "name": "role",
          "type": "bytes32"
        },
        {
          "internalType": "address",
          "name": "callerConfirmation",
          "type": "address"
        }
      ],
      "name": "renounceRole",
      "outputs": [],
      "stateMutability": "nonpayable",
      "type": "function"
    },
    {
      "inputs": [
        {
          "internalType": "bytes32",
          "name": "role",
          "type": "bytes32"
        },
        {
          "internalType": "address",
          "name": "account",
          "type": "address"
        }
      ],
      "name": "revokeRole",
      "outputs": [],
      "stateMutability": "nonpayable",
      "type": "function"
    },
    {
      "inputs": [
        {
          "internalType": "bytes4",
          "name": "interfaceId",
          "type": "bytes4"
        }
      ],
      "name": "supportsInterface",
      "outputs": [
        {
          "internalType": "bool",
          "name": "",
          "type": "bool"
        }
      ],
      "stateMutability": "view",
      "type": "function"
    }
  ],
  "bytecode": "0x608060405234801561001057600080fd5b5061001c6000336100ce565b506100477fa952726ef2588ad078edf35b066f7c7406e207cb0003bbaba8cb53eba9553e72336100ce565b506100727f4056c932e3f2d90f160881892422c8f1255baba3c666a8b8d7904fe3a7c84872336100ce565b5061009d7f373fdac787be5578b9a3d4a9ca3e3ae1e632ab5ee4750e92f65223238a15b2ef336100ce565b506100c87f9b272aa0221ce21621c8f26c35e7024628aa89fa67885b0067828bc75b5cc1ee336100ce565b5061017a565b6000828152602081815260408083206001600160a01b038516845290915281205460ff16610170576000838152602081815260408083206001600160a01b03861684529091529020805460ff191660011790556101283390565b6001600160a01b0316826001600160a01b0316847f2f8788117e7eff1d82e926ec794901d17c78024a50270940304540a733656f0d60405160405180910390a4506001610174565b5060005b92915050565b6104e8806101896000396000f3fe608060405234801561001057600080fd5b50600436106100a95760003560e01c806372b651661161007157806372b651661461015657806391d148541461017d5780639c467b3114610190578063a217fddf146101b7578063bd3070c6146101bf578063d547741f146101e657600080fd5b806301ffc9a7146100ae578063248a9ca3146100d65780632f2ff15d1461010757806336568abe1461011c5780636394f6e61461012f575b600080fd5b6100c16100bc36600461042c565b6101f9565b60405190151581526020015b60405180910390f35b6100f96100e436600461045d565b60009081526020819052604090206001015490565b6040519081526020016100cd565b61011a610115366004610476565b610230565b005b61011a61012a366004610476565b61025b565b6100f97fa952726ef2588ad078edf35b066f7c7406e207cb0003bbaba8cb53eba9553e7281565b6100f97f4056c932e3f2d90f160881892422c8f1255baba3c666a8b8d7904fe3a7c8487281565b6100c161018b366004610476565b610293565b6100f97f9b272aa0221ce21621c8f26c35e7024628aa89fa67885b0067828bc75b5cc1ee81565b6100f9600081565b6100f97f373fdac787be5578b9a3d4a9ca3e3ae1e632ab5ee4750e92f65223238a15b2ef81565b61011a6101f4366004610476565b6102bc565b60006001600160e01b03198216637965db0b60e01b148061022a57506301ffc9a760e01b6001600160e01b03198316145b92915050565b60008281526020819052604090206001015461024b816102e1565b61025583836102ee565b50505050565b6001600160a01b03811633146102845760405163334bd91960e11b815260040160405180910390fd5b61028e8282610380565b505050565b6000918252602082815260408084206001600160a01b0393909316845291905290205460ff1690565b6000828152602081905260409020600101546102d7816102e1565b6102558383610380565b6102eb81336103eb565b50565b60006102fa8383610293565b610378576000838152602081815260408083206001600160a01b03861684529091529020805460ff191660011790556103303390565b6001600160a01b0316826001600160a01b0316847f2f8788117e7eff1d82e926ec794901d17c78024a50270940304540a733656f0d60405160405180910390a450600161022a565b50600061022a565b600061038c8383610293565b15610378576000838152602081815260408083206001600160a01b0386168085529252808320805460ff1916905551339286917ff6391f5c32d9c69d2a47ea670b442974b53935d1edc7fd64eb21e047a839171b9190a450600161022a565b6103f58282610293565b6104285760405163e2517d3f60e01b81526001600160a01b03821660048201526024810183905260440160405180910390fd5b5050565b60006020828403121561043e57600080fd5b81356001600160e01b03198116811461045657600080fd5b9392505050565b60006020828403121561046f57600080fd5b5035919050565b6000806040838503121561048957600080fd5b8235915060208301356001600160a01b03811681146104a757600080fd5b80915050925092905056fea264697066735822122079f4c0e112703bc98bf6610938d5ce9077721c3fc10f523a0618819932e9de0564736f6c63430008140033",
  "linkReferences": {},
  "deployedLinkReferences": {}
}