{
  "_format": "hh-sol-artifact-1",
  "contractName": "JewelryNFT",
  "sourceName": "contracts/JewelryNFT.sol",
  "abi": [
    {
      "inputs": [],
      "stateMutability": "nonpayable",
      "type": "constructor"
    },
    {
      "inputs": [],
      "name": "AccessControlBadConfirmation",
      "type": "error"
    },
    {
      "inputs": [
        {
          "internalType": "address",
          "name": "account",
          "type": "address"
        },
        {
          "internalType": "bytes32",
          "name": "neededRole",
          "type": "bytes32"
        }
      ],
      "name": "AccessControlUnauthorizedAccount",
      "type": "error"
    },
    {
      "inputs": [
        {
          "internalType": "address",
          "name": "sender",
          "type": "address"
        },
        {
          "internalType": "uint256",
          "name": "tokenId",
          "type": "uint256"
        },
        {
          "internalType": "address",
          "name": "owner",
          "type": "address"
        }
      ],
      "name": "ERC721IncorrectOwner",
      "type": "error"
    },
    {
      "inputs": [
        {
          "internalType": "address",
          "name": "operator",
          "type": "address"
        },
        {
          "internalType": "uint256",
          "name": "tokenId",
          "type": "uint256"
        }
      ],
      "name": "ERC721InsufficientApproval",
      "type": "error"
    },
    {
      "inputs": [
        {
          "internalType": "address",
          "name": "approver",
          "type": "address"
        }
      ],
      "name": "ERC721InvalidApprover",
      "type": "error"
    },
    {
      "inputs": [
        {
          "internalType": "address",
          "name": "operator",
          "type": "address"
        }
      ],
      "name": "ERC721InvalidOperator",
      "type": "error"
    },
    {
      "inputs": [
        {
          "internalType": "address",
          "name": "owner",
          "type": "address"
        }
      ],
      "name": "ERC721InvalidOwner",
      "type": "error"
    },
    {
      "inputs": [
        {
          "internalType": "address",
          "name": "receiver",
          "type": "address"
        }
      ],
      "name": "ERC721InvalidReceiver",
      "type": "error"
    },
    {
      "inputs": [
        {
          "internalType": "address",
          "name": "sender",
          "type": "address"
        }
      ],
      "name": "ERC721InvalidSender",
      "type": "error"
    },
    {
      "inputs": [
        {
          "internalType": "uint256",
          "name": "tokenId",
          "type": "uint256"
        }
      ],
      "name": "ERC721NonexistentToken",
      "type": "error"
    },
    {
      "anonymous": false,
      "inputs": [
        {
          "indexed": true,
          "internalType": "address",
          "name": "owner",
          "type": "address"
        },
        {
          "indexed": true,
          "internalType": "address",
          "name": "approved",
          "type": "address"
        },
        {
          "indexed": true,
          "internalType": "uint256",
          "name": "tokenId",
          "type": "uint256"
        }
      ],
      "name": "Approval",
      "type": "event"
    },
    {
      "anonymous": false,
      "inputs": [
        {
          "indexed": true,
          "internalType": "address",
          "name": "owner",
          "type": "address"
        },
        {
          "indexed": true,
          "internalType": "address",
          "name": "operator",
          "type": "address"
        },
        {
          "indexed": false,
          "internalType": "bool",
          "name": "approved",
          "type": "bool"
        }
      ],
      "name": "ApprovalForAll",
      "type": "event"
    },
    {
      "anonymous": false,
      "inputs": [
        {
          "indexed": false,
          "internalType": "uint256",
          "name": "_fromTokenId",
          "type": "uint256"
        },
        {
          "indexed": false,
          "internalType": "uint256",
          "name": "_toTokenId",
          "type": "uint256"
        }
      ],
      "name": "BatchMetadataUpdate",
      "type": "event"
    },
    {
      "anonymous": false,
      "inputs": [
        {
          "indexed": true,
          "internalType": "uint256",
          "name": "tokenId",
          "type": "uint256"
        },
        {
          "indexed": false,
          "internalType": "enum JewelryNFT.JewelryState",
          "name": "newState",
          "type": "uint8"
        },
        {
          "indexed": true,
          "internalType": "address",
          "name": "actor",
          "type": "address"
        },
        {
          "indexed": false,
          "internalType": "uint256",
          "name": "timestamp",
          "type": "uint256"
        }
      ],
      "name": "JewelryStateChanged",
      "type": "event"
    },
    {
      "anonymous": false,
      "inputs": [
        {
          "indexed": false,
          "internalType": "uint256",
          "name": "_tokenId",
          "type": "uint256"
        }
      ],
      "name": "MetadataUpdate",
      "type": "event"
    },
    {
      "anonymous": false,
      "inputs": [
        {
          "indexed": true,
          "internalType": "bytes32",
          "name": "role",
          "type": "bytes32"
        },
        {
          "indexed": true,
          "internalType": "bytes32",
          "name": "previousAdminRole",
          "type": "bytes32"
        },
        {
          "indexed": true,
          "internalType": "bytes32",
          "name": "newAdminRole",
          "type": "bytes32"
        }
      ],
      "name": "RoleAdminChanged",
      "type": "event"
    },
    {
      "anonymous": false,
      "inputs": [
        {
          "indexed": true,
          "internalType": "bytes32",
          "name": "role",
          "type": "bytes32"
        },
        {
          "indexed": true,
          "internalType": "address",
          "name": "account",
          "type": "address"
        },
        {
          "indexed": true,
          "internalType": "address",
          "name": "sender",
          "type": "address"
        }
      ],
      "name": "RoleGranted",
      "type": "event"
    },
    {
      "anonymous": false,
      "inputs": [
        {
          "indexed": true,
          "internalType": "bytes32",
          "name": "role",
          "type": "bytes32"
        },
        {
          "indexed": true,
          "internalType": "address",
          "name": "account",
          "type": "address"
        },
        {
          "indexed": true,
          "internalType": "address",
          "name": "sender",
          "type": "address"
        }
      ],
      "name": "RoleRevoked",
      "type": "event"
    },
    {
      "anonymous": false,
      "inputs": [
        {
          "indexed": true,
          "internalType": "address",
          "name": "from",
          "type": "address"
        },
        {
          "indexed": true,
          "internalType": "address",
          "name": "to",
          "type": "address"
        },
        {
          "indexed": true,
          "internalType": "uint256",
          "name": "tokenId",
          "type": "uint256"
        }
      ],
      "name": "Transfer",
      "type": "event"
    },
    {
      "inputs": [],
      "name": "CUTTER_ROLE",
      "outputs": [
        {
          "internalType": "bytes32",
          "name": "",
          "type": "bytes32"
        }
      ],
      "stateMutability": "view",
      "type": "function"
    },
    {
      "inputs": [],
      "name": "DEFAULT_ADMIN_ROLE",
      "outputs": [
        {
          "internalType": "bytes32",
          "name": "",
          "type": "bytes32"
        }
      ],
      "stateMutability": "view",
      "type": "function"
    },
    {
      "inputs": [],
      "name": "JEWELER_ROLE",
      "outputs": [
        {
          "internalType": "bytes32",
          "name": "",
          "type": "bytes32"
        }
      ],
      "stateMutability": "view",
      "type": "function"
    },
    {
      "inputs": [],
      "name": "LAB_ROLE",
      "outputs": [
        {
          "internalType": "bytes32",
          "name": "",
          "type": "bytes32"
        }
      ],
      "stateMutability": "view",
      "type": "function"
    },
    {
      "inputs": [],
      "name": "MINER_ROLE",
      "outputs": [
        {
          "internalType": "bytes32",
          "name": "",
          "type": "bytes32"
        }
      ],
      "stateMutability": "view",
      "type": "function"
    },
    {
      "inputs": [
        {
          "internalType": "address",
          "name": "to",
          "type": "address"
        },
        {
          "internalType": "uint256",
          "name": "tokenId",
          "type": "uint256"
        }
      ],
      "name": "approve",
      "outputs": [],
      "stateMutability": "nonpayable",
      "type": "function"
    },
    {
      "inputs": [
        {
          "internalType": "address",
          "name": "owner",
          "type": "address"
        }
      ],
      "name": "balanceOf",
      "outputs": [
        {
          "internalType": "uint256",
          "name": "",
          "type": "uint256"
        }
      ],
      "stateMutability": "view",
      "type": "function"
    },
    {
      "inputs": [
        {
          "internalType": "uint256",
          "name": "tokenId",
          "type": "uint256"
        }
      ],
      "name": "getApproved",
      "outputs": [
        {
          "internalType": "address",
          "name": "",
          "type": "address"
        }
      ],
      "stateMutability": "view",
      "type": "function"
    },
    {
      "inputs": [
        {
          "internalType": "uint256",
          "name": "tokenId",
          "type": "uint256"
        }
      ],
      "name": "getJewelryItem",
      "outputs": [
        {
          "components": [
            {
              "internalType": "uint256",
              "name": "tokenId",
              "type": "uint256"
            },
            {
              "internalType": "enum JewelryNFT.JewelryState",
              "name": "state",
              "type": "uint8"
            },
            {
              "internalType": "string",
              "name": "uniqueId",
              "type": "string"
            },
            {
              "internalType": "address",
              "name": "currentOwner",
              "type": "address"
            },
            {
              "internalType": "uint256",
              "name": "timestamp",
              "type": "uint256"
            },
            {
              "internalType": "string",
              "name": "ipfsHash",
              "type": "string"
            }
          ],
          "internalType": "struct JewelryNFT.JewelryItem",
          "name": "",
          "type": "tuple"
        }
      ],
      "stateMutability": "view",
      "type": "function"
    },
    {
      "inputs": [
        {
          "internalType": "bytes32",
          "name": "role",
          "type": "bytes32"
        }
      ],
      "name": "getRoleAdmin",
      "outputs": [
        {
          "internalType": "bytes32",
          "name": "",
          "type": "bytes32"
        }
      ],
      "stateMutability": "view",
      "type": "function"
    },
    {
      "inputs": [
        {
          "internalType": "bytes32",
          "name": "role",
          "type": "bytes32"
        },
        {
          "internalType": "address",
          "name": "account",
          "type": "address"
        }
      ],
      "name": "grantRole",
      "outputs": [],
      "stateMutability": "nonpayable",
      "type": "function"
    },
    {
      "inputs": [
        {
          "internalType": "bytes32",
          "name": "role",
          "type": "bytes32"
        },
        {
          "internalType": "address",
          "name": "account",
          "type": "address"
        }
      ],
      "name": "hasRole",
      "outputs": [
        {
          "internalType": "bool",
          "name": "",
          "type": "bool"
        }
      ],
      "stateMutability": "view",
      "type": "function"
    },
    {
      "inputs": [
        {
          "internalType": "address",
          "name": "owner",
          "type": "address"
        },
        {
          "internalType": "address",
          "name": "operator",
          "type": "address"
        }
      ],
      "name": "isApprovedForAll",
      "outputs": [
        {
          "internalType": "bool",
          "name": "",
          "type": "bool"
        }
      ],
      "stateMutability": "view",
      "type": "function"
    },
    {
      "inputs": [
        {
          "internalType": "uint256",
          "name": "",
          "type": "uint256"
        }
      ],
      "name": "jewelryItems",
      "outputs": [
        {
          "internalType": "uint256",
          "name": "tokenId",
          "type": "uint256"
        },
        {
          "internalType": "enum JewelryNFT.JewelryState",
          "name": "state",
          "type": "uint8"
        },
        {
          "internalType": "string",
          "name": "uniqueId",
          "type": "string"
        },
        {
          "internalType": "address",
          "name": "currentOwner",
          "type": "address"
        },
        {
          "internalType": "uint256",
          "name": "timestamp",
          "type": "uint256"
        },
        {
          "internalType": "string",
          "name": "ipfsHash",
          "type": "string"
        }
      ],
      "stateMutability": "view",
      "type": "function"
    },
    {
      "inputs": [
        {
          "internalType": "address",
          "name": "to",
          "type": "address"
        },
        {
          "internalType": "string",
          "name": "uniqueId",
          "type": "string"
        },
        {
          "internalType": "string",
          "name": "ipfsHash",
          "type": "string"
        }
      ],
      "name": "mintJewelry",
      "outputs": [
        {
          "internalType": "uint256",
          "name": "",
          "type": "uint256"
        }
      ],
      "stateMutability": "nonpayable",
      "type": "function"
    },
    {
      "inputs": [],
      "name": "name",
      "outputs": [
        {
          "internalType": "string",
          "name": "",
          "type": "string"
        }
      ],
      "stateMutability": "view",
      "type": "function"
    },
    {
      "inputs": [
        {
          "internalType": "uint256",
          "name": "tokenId",
          "type": "uint256"
        }
      ],
      "name": "ownerOf",
      "outputs": [
        {
          "internalType": "address",
          "name": "",
          "type": "address"
        }
      ],
      "stateMutability": "view",
      "type": "function"
    },
    {
      "inputs": [
        {
          "internalType": "bytes32",
          "name": "role",
          "type": "bytes32"
        },
        {
          "internalType": "address",
          "name": "callerConfirmation",
          "type": "address"
        }
      ],
      "name": "renounceRole",
      "outputs": [],
      "stateMutability": "nonpayable",
      "type": "function"
    },
    {
      "inputs": [
        {
          "internalType": "bytes32",
          "name": "role",
          "type": "bytes32"
        },
        {
          "internalType": "address",
          "name": "account",
          "type": "address"
        }
      ],
      "name": "revokeRole",
      "outputs": [],
      "stateMutability": "nonpayable",
      "type": "function"
    },
    {
      "inputs": [
        {
          "internalType": "address",
          "name": "from",
          "type": "address"
        },
        {
          "internalType": "address",
          "name": "to",
          "type": "address"
        },
        {
          "internalType": "uint256",
          "name": "tokenId",
          "type": "uint256"
        }
      ],
      "name": "safeTransferFrom",
      "outputs": [],
      "stateMutability": "nonpayable",
      "type": "function"
    },
    {
      "inputs": [
        {
          "internalType": "address",
          "name": "from",
          "type": "address"
        },
        {
          "internalType": "address",
          "name": "to",
          "type": "address"
        },
        {
          "internalType": "uint256",
          "name": "tokenId",
          "type": "uint256"
        },
        {
          "internalType": "bytes",
          "name": "data",
          "type": "bytes"
        }
      ],
      "name": "safeTransferFrom",
      "outputs": [],
      "stateMutability": "nonpayable",
      "type": "function"
    },
    {
      "inputs": [
        {
          "internalType": "address",
          "name": "operator",
          "type": "address"
        },
        {
          "internalType": "bool",
          "name": "approved",
          "type": "bool"
        }
      ],
      "name": "setApprovalForAll",
      "outputs": [],
      "stateMutability": "nonpayable",
      "type": "function"
    },
    {
      "inputs": [
        {
          "internalType": "bytes4",
          "name": "interfaceId",
          "type": "bytes4"
        }
      ],
      "name": "supportsInterface",
      "outputs": [
        {
          "internalType": "bool",
          "name": "",
          "type": "bool"
        }
      ],
      "stateMutability": "view",
      "type": "function"
    },
    {
      "inputs": [],
      "name": "symbol",
      "outputs": [
        {
          "internalType": "string",
          "name": "",
          "type": "string"
        }
      ],
      "stateMutability": "view",
      "type": "function"
    },
    {
      "inputs": [
        {
          "internalType": "uint256",
          "name": "tokenId",
          "type": "uint256"
        }
      ],
      "name": "tokenURI",
      "outputs": [
        {
          "internalType": "string",
          "name": "",
          "type": "string"
        }
      ],
      "stateMutability": "view",
      "type": "function"
    },
    {
      "inputs": [
        {
          "internalType": "address",
          "name": "from",
          "type": "address"
        },
        {
          "internalType": "address",
          "name": "to",
          "type": "address"
        },
        {
          "internalType": "uint256",
          "name": "tokenId",
          "type": "uint256"
        }
      ],
      "name": "transferFrom",
      "outputs": [],
      "stateMutability": "nonpayable",
      "type": "function"
    },
    {
      "inputs": [
        {
          "internalType": "uint256",
          "name": "tokenId",
          "type": "uint256"
        },
        {
          "internalType": "enum JewelryNFT.JewelryState",
          "name": "newState",
          "type": "uint8"
        }
      ],
      "name": "updateJewelryState",
      "outputs": [],
      "stateMutability": "nonpayable",
      "type": "function"
    },
    {
      "inputs": [
        {
          "internalType": "string",
          "name": "",
          "type": "string"
        }
      ],
      "name": "usedUniqueIds",
      "outputs": [
        {
          "internalType": "bool",
          "name": "",
          "type": "bool"
        }
      ],
      "stateMutability": "view",
      "type": "function"
    }
  ],
  "bytecode": "0x60806040523480156200001157600080fd5b506040518060400160405280600a81526020016912995dd95b1c9e53919560b21b815250604051806040016040528060038152602001621295d360ea1b815250816000908162000062919062000296565b50600162000071828262000296565b5062000083915060009050336200013e565b50620000b07fa952726ef2588ad078edf35b066f7c7406e207cb0003bbaba8cb53eba9553e72336200013e565b50620000dd7f4056c932e3f2d90f160881892422c8f1255baba3c666a8b8d7904fe3a7c84872336200013e565b506200010a7f373fdac787be5578b9a3d4a9ca3e3ae1e632ab5ee4750e92f65223238a15b2ef336200013e565b50620001377f9b272aa0221ce21621c8f26c35e7024628aa89fa67885b0067828bc75b5cc1ee336200013e565b5062000362565b60008281526007602090815260408083206001600160a01b038516845290915281205460ff16620001e75760008381526007602090815260408083206001600160a01b03861684529091529020805460ff191660011790556200019e3390565b6001600160a01b0316826001600160a01b0316847f2f8788117e7eff1d82e926ec794901d17c78024a50270940304540a733656f0d60405160405180910390a4506001620001eb565b5060005b92915050565b634e487b7160e01b600052604160045260246000fd5b600181811c908216806200021c57607f821691505b6020821081036200023d57634e487b7160e01b600052602260045260246000fd5b50919050565b601f8211156200029157600081815260208120601f850160051c810160208610156200026c5750805b601f850160051c820191505b818110156200028d5782815560010162000278565b5050505b505050565b81516001600160401b03811115620002b257620002b2620001f1565b620002ca81620002c3845462000207565b8462000243565b602080601f831160018114620003025760008415620002e95750858301515b600019600386901b1c1916600185901b1785556200028d565b600085815260208120601f198616915b82811015620003335788860151825594840194600190910190840162000312565b5085821015620003525787850151600019600388901b60f8161c191681555b5050505050600190811b01905550565b6120d380620003726000396000f3fe608060405234801561001057600080fd5b50600436106101c45760003560e01c806370a08231116100f9578063a22cb46511610097578063bd3070c611610071578063bd3070c614610440578063c87b56dd14610467578063d547741f1461047a578063e985e9c51461048d57600080fd5b8063a22cb465146103f5578063a23fb7ae14610408578063b88d4fde1461042d57600080fd5b806395317603116100d357806395317603146103ab57806395d89b41146103be5780639c467b31146103c6578063a217fddf146103ed57600080fd5b806370a082311461035e57806372b651661461037157806391d148541461039857600080fd5b80632f2ff15d1161016657806342842e0e1161014057806342842e0e146102fe5780634c1346c5146103115780636352211e146103245780636394f6e61461033757600080fd5b80632f2ff15d146102aa57806336568abe146102bd57806341706199146102d057600080fd5b8063095ea7b3116101a2578063095ea7b3146102315780631a9bd13b1461024657806323b872dd14610266578063248a9ca31461027957600080fd5b806301ffc9a7146101c957806306fdde03146101f1578063081812fc14610206575b600080fd5b6101dc6101d73660046119a6565b6104a0565b60405190151581526020015b60405180910390f35b6101f96104b1565b6040516101e89190611a13565b610219610214366004611a26565b610543565b6040516001600160a01b0390911681526020016101e8565b61024461023f366004611a5b565b61056c565b005b610259610254366004611a26565b61057b565b6040516101e89190611abd565b610244610274366004611b38565b6107aa565b61029c610287366004611a26565b60009081526007602052604090206001015490565b6040519081526020016101e8565b6102446102b8366004611b74565b610835565b6102446102cb366004611b74565b61085a565b6101dc6102de366004611c4c565b8051602081830181018051600a8252928201919093012091525460ff1681565b61024461030c366004611b38565b610892565b61024461031f366004611c81565b6108ad565b610219610332366004611a26565b610a8d565b61029c7fa952726ef2588ad078edf35b066f7c7406e207cb0003bbaba8cb53eba9553e7281565b61029c61036c366004611cb5565b610a98565b61029c7f4056c932e3f2d90f160881892422c8f1255baba3c666a8b8d7904fe3a7c8487281565b6101dc6103a6366004611b74565b610ae0565b61029c6103b9366004611cd0565b610b0b565b6101f9610d5f565b61029c7f9b272aa0221ce21621c8f26c35e7024628aa89fa67885b0067828bc75b5cc1ee81565b61029c600081565b610244610403366004611d44565b610d6e565b61041b610416366004611a26565b610d79565b6040516101e896959493929190611d75565b61024461043b366004611dd0565b610ed0565b61029c7f373fdac787be5578b9a3d4a9ca3e3ae1e632ab5ee4750e92f65223238a15b2ef81565b6101f9610475366004611a26565b610ee8565b610244610488366004611b74565b610ff9565b6101dc61049b366004611e4c565b61101e565b60006104ab8261104c565b92915050565b6060600080546104c090611e76565b80601f01602080910402602001604051908101604052809291908181526020018280546104ec90611e76565b80156105395780601f1061050e57610100808354040283529160200191610539565b820191906000526020600020905b81548152906001019060200180831161051c57829003601f168201915b5050505050905090565b600061054e82611071565b506000828152600460205260409020546001600160a01b03166104ab565b6105778282336110aa565b5050565b6040805160c0810182526000808252602082018190526060928201839052828201819052608082015260a08101919091526000828152600260205260409020546001600160a01b031661060c5760405162461bcd60e51b8152602060048201526014602482015273151bdad95b88191bd95cc81b9bdd08195e1a5cdd60621b60448201526064015b60405180910390fd5b600082815260096020908152604091829020825160c08101909352805483526001810154909183019060ff16600581111561064957610649611a85565b600581111561065a5761065a611a85565b815260200160028201805461066e90611e76565b80601f016020809104026020016040519081016040528092919081815260200182805461069a90611e76565b80156106e75780601f106106bc576101008083540402835291602001916106e7565b820191906000526020600020905b8154815290600101906020018083116106ca57829003601f168201915b505050918352505060038201546001600160a01b031660208201526004820154604082015260058201805460609092019161072190611e76565b80601f016020809104026020016040519081016040528092919081815260200182805461074d90611e76565b801561079a5780601f1061076f5761010080835404028352916020019161079a565b820191906000526020600020905b81548152906001019060200180831161077d57829003601f168201915b5050505050815250509050919050565b6001600160a01b0382166107d457604051633250574960e11b815260006004820152602401610603565b60006107e18383336110b7565b9050836001600160a01b0316816001600160a01b03161461082f576040516364283d7b60e01b81526001600160a01b0380861660048301526024820184905282166044820152606401610603565b50505050565b600082815260076020526040902060010154610850816111b0565b61082f83836111bd565b6001600160a01b03811633146108835760405163334bd91960e11b815260040160405180910390fd5b61088d8282611251565b505050565b61088d83838360405180602001604052806000815250610ed0565b6000828152600260205260409020546001600160a01b03166109085760405162461bcd60e51b8152602060048201526014602482015273151bdad95b88191bd95cc81b9bdd08195e1a5cdd60621b6044820152606401610603565b6109327fa952726ef2588ad078edf35b066f7c7406e207cb0003bbaba8cb53eba9553e7233610ae0565b8061096257506109627f4056c932e3f2d90f160881892422c8f1255baba3c666a8b8d7904fe3a7c8487233610ae0565b8061099257506109927f373fdac787be5578b9a3d4a9ca3e3ae1e632ab5ee4750e92f65223238a15b2ef33610ae0565b806109c257506109c27f9b272aa0221ce21621c8f26c35e7024628aa89fa67885b0067828bc75b5cc1ee33610ae0565b610a0e5760405162461bcd60e51b815260206004820152601860248201527f43616c6c6572206973206e6f7420617574686f72697a656400000000000000006044820152606401610603565b600082815260096020526040902060018082018054849260ff1990911690836005811115610a3e57610a3e611a85565b02179055504260048201819055604051339185917f8f7875ffe19517861e65108e175d1a85622f1d7fe733efa3f9f55e21be2086a191610a8091879190611eb0565b60405180910390a3505050565b60006104ab82611071565b60006001600160a01b038216610ac4576040516322718ad960e21b815260006004820152602401610603565b506001600160a01b031660009081526003602052604090205490565b60009182526007602090815260408084206001600160a01b0393909316845291905290205460ff1690565b6000610b377fa952726ef2588ad078edf35b066f7c7406e207cb0003bbaba8cb53eba9553e7233610ae0565b610b7b5760405162461bcd60e51b815260206004820152601560248201527421b0b63632b91034b9903737ba10309036b4b732b960591b6044820152606401610603565b600a83604051610b8b9190611ecb565b9081526040519081900360200190205460ff1615610beb5760405162461bcd60e51b815260206004820152601760248201527f556e69717565496420616c7265616479206578697374730000000000000000006044820152606401610603565b60088054906000610bfb83611ee7565b9091555050600854610c0d85826112be565b610c178184611323565b6040805160c081018252828152600060208083018281528385018990526001600160a01b038a16606085015242608085015260a08401889052858352600990915292902081518155915160018084018054939493909160ff1990911690836005811115610c8657610c86611a85565b021790555060408201516002820190610c9f9082611f54565b5060608201516003820180546001600160a01b0319166001600160a01b039092169190911790556080820151600482015560a08201516005820190610ce49082611f54565b509050506001600a85604051610cfa9190611ecb565b908152604051908190036020018120805492151560ff1990931692909217909155339082907f8f7875ffe19517861e65108e175d1a85622f1d7fe733efa3f9f55e21be2086a190610d4f906000904290611eb0565b60405180910390a3949350505050565b6060600180546104c090611e76565b610577338383611373565b600960205260009081526040902080546001820154600283018054929360ff90921692610da590611e76565b80601f0160208091040260200160405190810160405280929190818152602001828054610dd190611e76565b8015610e1e5780601f10610df357610100808354040283529160200191610e1e565b820191906000526020600020905b815481529060010190602001808311610e0157829003601f168201915b505050506003830154600484015460058501805494956001600160a01b039093169491935090610e4d90611e76565b80601f0160208091040260200160405190810160405280929190818152602001828054610e7990611e76565b8015610ec65780601f10610e9b57610100808354040283529160200191610ec6565b820191906000526020600020905b815481529060010190602001808311610ea957829003601f168201915b5050505050905086565b610edb8484846107aa565b61082f338585858561140a565b6060610ef382611071565b5060008281526006602052604081208054610f0d90611e76565b80601f0160208091040260200160405190810160405280929190818152602001828054610f3990611e76565b8015610f865780601f10610f5b57610100808354040283529160200191610f86565b820191906000526020600020905b815481529060010190602001808311610f6957829003601f168201915b505050505090506000610fa460408051602081019091526000815290565b90508051600003610fb6575092915050565b815115610fe8578082604051602001610fd0929190612014565b60405160208183030381529060405292505050919050565b610ff184611535565b949350505050565b600082815260076020526040902060010154611014816111b0565b61082f8383611251565b6001600160a01b03918216600090815260056020908152604080832093909416825291909152205460ff1690565b60006001600160e01b03198216637965db0b60e01b14806104ab57506104ab826115aa565b6000818152600260205260408120546001600160a01b0316806104ab57604051637e27328960e01b815260048101849052602401610603565b61088d83838360016115cf565b6000828152600260205260408120546001600160a01b03908116908316156110e4576110e48184866116d5565b6001600160a01b03811615611122576111016000856000806115cf565b6001600160a01b038116600090815260036020526040902080546000190190555b6001600160a01b03851615611151576001600160a01b0385166000908152600360205260409020805460010190555b60008481526002602052604080822080546001600160a01b0319166001600160a01b0389811691821790925591518793918516917fddf252ad1be2c89b69c2b068fc378daa952ba7f163c4a11628f55a4df523b3ef91a4949350505050565b6111ba8133611739565b50565b60006111c98383610ae0565b6112495760008381526007602090815260408083206001600160a01b03861684529091529020805460ff191660011790556112013390565b6001600160a01b0316826001600160a01b0316847f2f8788117e7eff1d82e926ec794901d17c78024a50270940304540a733656f0d60405160405180910390a45060016104ab565b5060006104ab565b600061125d8383610ae0565b156112495760008381526007602090815260408083206001600160a01b0386168085529252808320805460ff1916905551339286917ff6391f5c32d9c69d2a47ea670b442974b53935d1edc7fd64eb21e047a839171b9190a45060016104ab565b6001600160a01b0382166112e857604051633250574960e11b815260006004820152602401610603565b60006112f6838360006110b7565b90506001600160a01b0381161561088d576040516339e3563760e11b815260006004820152602401610603565b600082815260066020526040902061133b8282611f54565b506040518281527ff8e1a15aba9398e019f0b49df1a4fde98ee17ae345cb5f6b5e2c27f5033e8ce79060200160405180910390a15050565b6001600160a01b0382166113a557604051630b61174360e31b81526001600160a01b0383166004820152602401610603565b6001600160a01b03838116600081815260056020908152604080832094871680845294825291829020805460ff191686151590811790915591519182527f17307eab39ab6107e8899845ad3d59bd9653f200f220920489ca2b5937696c319101610a80565b6001600160a01b0383163b1561152e57604051630a85bd0160e11b81526001600160a01b0384169063150b7a029061144c908890889087908790600401612043565b6020604051808303816000875af1925050508015611487575060408051601f3d908101601f1916820190925261148491810190612080565b60015b6114f0573d8080156114b5576040519150601f19603f3d011682016040523d82523d6000602084013e6114ba565b606091505b5080516000036114e857604051633250574960e11b81526001600160a01b0385166004820152602401610603565b805181602001fd5b6001600160e01b03198116630a85bd0160e11b1461152c57604051633250574960e11b81526001600160a01b0385166004820152602401610603565b505b5050505050565b606061154082611071565b50600061155860408051602081019091526000815290565b9050600081511161157857604051806020016040528060008152506115a3565b8061158284611772565b604051602001611593929190612014565b6040516020818303038152906040525b9392505050565b60006001600160e01b03198216632483248360e11b14806104ab57506104ab82611805565b80806115e357506001600160a01b03821615155b156116a55760006115f384611071565b90506001600160a01b0383161580159061161f5750826001600160a01b0316816001600160a01b031614155b80156116325750611630818461101e565b155b1561165b5760405163a9fbf51f60e01b81526001600160a01b0384166004820152602401610603565b81156116a35783856001600160a01b0316826001600160a01b03167f8c5be1e5ebec7d5bd14f71427d1e84f3dd0314c0f7b2291e5b200ac8c7c3b92560405160405180910390a45b505b5050600090815260046020526040902080546001600160a01b0319166001600160a01b0392909216919091179055565b6116e0838383611855565b61088d576001600160a01b03831661170e57604051637e27328960e01b815260048101829052602401610603565b60405163177e802f60e01b81526001600160a01b038316600482015260248101829052604401610603565b6117438282610ae0565b6105775760405163e2517d3f60e01b81526001600160a01b038216600482015260248101839052604401610603565b6060600061177f836118b8565b600101905060008167ffffffffffffffff81111561179f5761179f611ba0565b6040519080825280601f01601f1916602001820160405280156117c9576020820181803683370190505b5090508181016020015b600019016f181899199a1a9b1b9c1cb0b131b232b360811b600a86061a8153600a85049450846117d357509392505050565b60006001600160e01b031982166380ac58cd60e01b148061183657506001600160e01b03198216635b5e139f60e01b145b806104ab57506301ffc9a760e01b6001600160e01b03198316146104ab565b60006001600160a01b03831615801590610ff15750826001600160a01b0316846001600160a01b0316148061188f575061188f848461101e565b80610ff15750506000908152600460205260409020546001600160a01b03908116911614919050565b60008072184f03e93ff9f4daa797ed6e38ed64bf6a1f0160401b83106118f75772184f03e93ff9f4daa797ed6e38ed64bf6a1f0160401b830492506040015b6d04ee2d6d415b85acef81000000008310611923576d04ee2d6d415b85acef8100000000830492506020015b662386f26fc10000831061194157662386f26fc10000830492506010015b6305f5e1008310611959576305f5e100830492506008015b612710831061196d57612710830492506004015b6064831061197f576064830492506002015b600a83106104ab5760010192915050565b6001600160e01b0319811681146111ba57600080fd5b6000602082840312156119b857600080fd5b81356115a381611990565b60005b838110156119de5781810151838201526020016119c6565b50506000910152565b600081518084526119ff8160208601602086016119c3565b601f01601f19169290920160200192915050565b6020815260006115a360208301846119e7565b600060208284031215611a3857600080fd5b5035919050565b80356001600160a01b0381168114611a5657600080fd5b919050565b60008060408385031215611a6e57600080fd5b611a7783611a3f565b946020939093013593505050565b634e487b7160e01b600052602160045260246000fd5b60068110611ab957634e487b7160e01b600052602160045260246000fd5b9052565b602081528151602082015260006020830151611adc6040840182611a9b565b50604083015160c06060840152611af660e08401826119e7565b905060018060a01b036060850151166080840152608084015160a084015260a0840151601f198483030160c0850152611b2f82826119e7565b95945050505050565b600080600060608486031215611b4d57600080fd5b611b5684611a3f565b9250611b6460208501611a3f565b9150604084013590509250925092565b60008060408385031215611b8757600080fd5b82359150611b9760208401611a3f565b90509250929050565b634e487b7160e01b600052604160045260246000fd5b600067ffffffffffffffff80841115611bd157611bd1611ba0565b604051601f8501601f19908116603f01168101908282118183101715611bf957611bf9611ba0565b81604052809350858152868686011115611c1257600080fd5b858560208301376000602087830101525050509392505050565b600082601f830112611c3d57600080fd5b6115a383833560208501611bb6565b600060208284031215611c5e57600080fd5b813567ffffffffffffffff811115611c7557600080fd5b610ff184828501611c2c565b60008060408385031215611c9457600080fd5b82359150602083013560068110611caa57600080fd5b809150509250929050565b600060208284031215611cc757600080fd5b6115a382611a3f565b600080600060608486031215611ce557600080fd5b611cee84611a3f565b9250602084013567ffffffffffffffff80821115611d0b57600080fd5b611d1787838801611c2c565b93506040860135915080821115611d2d57600080fd5b50611d3a86828701611c2c565b9150509250925092565b60008060408385031215611d5757600080fd5b611d6083611a3f565b915060208301358015158114611caa57600080fd5b868152611d856020820187611a9b565b60c060408201526000611d9b60c08301876119e7565b6001600160a01b03861660608401526080830185905282810360a0840152611dc381856119e7565b9998505050505050505050565b60008060008060808587031215611de657600080fd5b611def85611a3f565b9350611dfd60208601611a3f565b925060408501359150606085013567ffffffffffffffff811115611e2057600080fd5b8501601f81018713611e3157600080fd5b611e4087823560208401611bb6565b91505092959194509250565b60008060408385031215611e5f57600080fd5b611e6883611a3f565b9150611b9760208401611a3f565b600181811c90821680611e8a57607f821691505b602082108103611eaa57634e487b7160e01b600052602260045260246000fd5b50919050565b60408101611ebe8285611a9b565b8260208301529392505050565b60008251611edd8184602087016119c3565b9190910192915050565b600060018201611f0757634e487b7160e01b600052601160045260246000fd5b5060010190565b601f82111561088d57600081815260208120601f850160051c81016020861015611f355750805b601f850160051c820191505b8181101561152c57828155600101611f41565b815167ffffffffffffffff811115611f6e57611f6e611ba0565b611f8281611f7c8454611e76565b84611f0e565b602080601f831160018114611fb75760008415611f9f5750858301515b600019600386901b1c1916600185901b17855561152c565b600085815260208120601f198616915b82811015611fe657888601518255948401946001909101908401611fc7565b50858210156120045787850151600019600388901b60f8161c191681555b5050505050600190811b01905550565b600083516120268184602088016119c3565b83519083019061203a8183602088016119c3565b01949350505050565b6001600160a01b0385811682528416602082015260408101839052608060608201819052600090612076908301846119e7565b9695505050505050565b60006020828403121561209257600080fd5b81516115a38161199056fea2646970667358221220244121152aa1a657226d63737889a0862f7634bbcde1e085dcef21619c0f1b6464736f6c63430008140033",
  "linkReferences": {},
  "deployedLinkReferences": {}
}